:020000040049B1
:0B000000800554494E49000249394177
:0C39410012490134E58260040249000BC9
:07394D0074054400602774BB
:053954007E2405F9745A
:05395900393400FA9072
:0E395E0049397E7586219014059BE493F0A3F1
:0E396C00A3E582B501F6E583B502F17586008C
:04397A000249000BF3
:06000B001249001180FE05
:0900110074EBC0E07400C0E0745F
:0C001A0049C0E07402C0E012490BB3D0F2
:0E002600E0D0E0D0E0D0E09014041A7401F0B5
:0C00340075826E1249042F7404C0E07441
:0A00400001C0E07449C0E07402C082
:0E004A00E012490BB3D0E0D0E0D0E0D0E012DD
:080058004902F57418C0E074C0
:0A00600001C0E07449C0E07402C062
:0E006A00E012490BB3D0E0D0E0D0E0D0E0903F
:0D007800140000E4F0901400017406F090F4
:0E008500140002740FF09014000374F0F09059
:0D00930014000474A0F090140005740EF029
:0E00A0009014000074AAF09014000174AAF0ED
:0E00AE007582721249074E124906A275820130
:0D00BC00124906C1AA827B00C002C0037475
:0800C9002AC0E07401C0E074DC
:0C00D10049C0E07402C0E012490BB3D03B
:0D00DD00E0D0E0D0E0D0E0D0E0D0E080B690
:0100EA0022F3
:0E00EB0069326374657374204C474D205630A3
:0B00F9002E312E31202121210D0A00A4
:0E010400616674657220696E69745F726F6D5A
:060112002121210D0A006D
:0E011800726561642069326320627573212173
:04012600210D0A009D
:0A012A00726561642025780A0D005B
:0E01340075A80075D000D002D001D000759BD8
:0E01420000758100C000C001C00290140419B5
:0E015000E4F09000000175F0001249016475A2
:05015E00A8807582007D
:010163002279
:0E016400C2AC75985A75CBFF75CAFC75C830D1
:0C017200D2CA90140419E0FA8A22601727
:0C017E009014041B7423F0904901B91286
:0B018A00490554C299C298D2AC800411
:04019500C298D299A1
:010199002243
:0C019A0053A87F7522019014041B7423ED
:0E01A600F0904901B912490554C299C298D28D
:0401B400AC43A88030
:0101B8002224
:0E01B900C0E0C0F0C082C083C093C0867586CF
:0E01C70000C084C085C095C09CC002C003C0AB
:0D01D50004C0D075D00020980402490258E3
:0C01E2009014059BE02419F584A3E03480
:0A01EE0000F585E43414F595E59959
:0E01F8000586F07586009014059BE02401FA40
:0E020600A3E03400FB9014059BEAF0EB5403D8
:0E021400A3F09014059D7586019014059BE0E3
:0E022200758600F5F0E0B5F011758601A3E0D9
:0C023000758600F5F0A3E0B5F002800236
:02023C00801828
:0E023E009014059DE02401FAA3E03400FB902B
:0A024C0014059DEAF0EB5403A3F043
:02025600C2984C
:05025800109902800670
:06025D009014059FE4F07F
:0E026300D0D0D004D003D002D09CD095D0854E
:0E027100D084D086D093D083D082D0F0D0E05D
:01027F00324C
:04028000E5226045CE
:0E0284009014059D7586019014059BE075860B
:0E02920000F5F0E0B5F011758601A3E0758669
:0A02A00000F5F0A3E0B5F00280279E
:0C02AA009014059DE02419F584A3E034B5
:0A02B60000F585E43414F595058683
:0902C000E0FA7586008A82800BC9
:0302C90030980565
:0502CC00AA998A8222BC
:0302D10075820033
:0102D4002207
:0602D500AA82E52260127E
:0702DB009014059FE070F98B
:0B02E2009014059F7401F08A998007BA
:0502ED0010990280FBE6
:0202F2008A99E7
:0102F40022E7
:0802F500E52270040249035CDC
:0E02FD009014059D7586019014059BE0758692
:0E030B0000F5F0E0B5F011758601A3E07586EF
:0A03190000F5F0A3E0B5F00280DA71
:0C0323009014059DE02419F584A3E0343B
:0A032F0000F585E43414F595058609
:0E033900E0FA758600C2AC9014059DE0240128
:0E034700FBA3E03400FC9014059DEBF0EC5499
:0703550003A3F0D2AC800706
:03035C003098FDD9
:04035F00AA99C298FD
:020363008A828C
:010365002275
:0E03660053B0FD9000000275F0001249039F95
:0303740043B00291
:010377002263
:0E037800C2AC9014059DE4F0A3F09014059B18
:0A038600E4F0A3F0C298E52260063F
:06039000C299D2AC80020C
:02039600D299FA
:010398002242
:010399002241
:04039A0012490B8574
:01039E00223C
:0E039F00AA82AB83AC93ADF0C002C003C004D1
:0E03AD00C00512490B85AE82AF83A893A9F05C
:0E03BB00D005D004D003D002EA2EFAEB3FFBAF
:0603C900EC38FCED39FDEB
:0E03CF00C002C003C004C00512490B85AE82F7
:0E03DD00AF83A893A9F0D005D004D003D002BE
:0B03EB00C3EE9AEF9BE89CE99D40D90F
:0103F60022E4
:0503F7009014059B229B
:0503FC00900000052245
:0E040100124903F7AA82AB83AC93C002C0037A
:0E040F00C004124903FCAD82AE83D004D003BA
:0E041D00D002ED2AFAEE3BFBE43CFC8A828B17
:03042B00838C932C
:01042E0022AB
:0A042F00AA829014041AE0B4011030
:0604390075C48275C49237
:05043F00E59130E3FB34
:0504440075C4128019CF
:080449009014041AE0B4021142
:0904510075C48275C48A75C49A51
:05045A00E59130E3FB19
:03045F0075C41A47
:0E046200C00212490401AB82AC83AD93D002FC
:0E0470009014044174FFF0A3F0A3740FF0C0C9
:0E047E0002C003C004C0058B828C838D9312D4
:0E048C00490B68AE82D005D004D003D002EA3E
:06049A0070040249054157
:0304A000EE6032D9
:0C04A3008E027F00C006C002C00774BDBE
:0A04AF00C0E07405C0E07449C0E02D
:0E04B9007402C0E012490BB3D0E0D0E0D0E0F6
:0E04C700D0E0D0E0D0E0D0068E82024905538E
:0E04D5008B028C068D077800C374FF9AFA74B0
:0E04E300FF9EFE740F9FFFE498F88E02EFC399
:0E04F10013CA13CAC313CA13CAFEE803035486
:0E04FF00C04EFEE80303543FFF78007901C0B1
:0E050D0002C006C007C000C003C004C005C085
:0A051B000174D9C0E07405C0E0745B
:0C05250049C0E07402C0E012490BB3C3EF
:0E053100E581940CF581E59B540344DC9400B5
:02053F00F59B2A
:0E0541009000FB3312490BAC1249019A53A1F2
:04054F00FB758200B6
:010553002285
:0E055400AA82AB83AC939014041BE0FD7E00E2
:0E0562007F008D848E858F959014041CEAF026
:0E057000A3EBF0A3ECF0A3E4F074020586F018
:0E057E00A37586009014041CA3A3E0F9A3E06B
:0E058C00FA7B007C00E90586F0A375860090DE
:0E059A0014041CA3E0FAA3E0FBA3E0FC78002D
:0E05A800EA0586F0A37586009014041CE0FAA4
:0605B6000586F0758600C9
:0105BC00221C
:0E05BD006572726F723A20726F6D5F696E69BF
:0E05CB00742072657475726E732025640A00C8
:0E05D9004865617020737461727473206174E0
:0E05E7002025702C206C656E67746820256CD2
:0405F500754B0A0038
:02397E00000047
:02398000000045
:013982000044
:0405F900900000016D
:0105FD0022DB
:0405FE007A007B0004
:0E0602008A048B05EB3395E0FEFFC3EC9420D9
:0D061000ED94A1EE9407EF648094805011EA
:08061D00E590C313FC30E0027C
:0206250080074C
:050627000ABA00010BFE
:02062C0080D478
:01062E0022A9
:0E062F005390FE000000000000005390FD00FC
:06063D00000000000000B7
:010643002294
:05064400AA82EA600536
:05064900439001800355
:03064E005390FEC8
:0E06510000000000000000439002124905FE68
:0E065F00000000000000005390FD00000000AD
:03066D000000008A
:010670002267
:0E0671004390010000000000000043900212C0
:0E067F004905FE00000000000000E590540157
:0E068D00FA000000000000005390FD00000085
:06069B00000000008A824D
:0106A1002236
:0E06A2005390FE000000000000004390020094
:0E06B000000000000000439001000000000068
:0206BE0000003A
:0106C0002217
:0606C100AA827B007C0808
:0E06C7008B057E00EECD25E0CD33FE8D03C009
:0E06D50002C003C00412490671D004D003D045
:0A06E30002E5825401FD4203DCDA57
:0406ED00EAB4000D5E
:0D06F100C00375820112490644D003800B3E
:0B06FE00C00375820012490644D003BF
:020709008B82E1
:01070B0022CB
:04070C00AA827B0042
:03071000BB080023
:02071300503460
:04071500EA30E711CE
:0E071900C002C00375820112490644D003D00D
:0307270002800F3E
:0E072A00C002C00375820012490644D003D0FD
:0107380002BE
:0E0739008A047D00EDCC25E0CC33FD8C020B54
:0207470080C769
:0407490012490671DA
:01074D002289
:0D074E00AA82C0021249062FD0028A821230
:03075B0049070C3F
:01075E002278
:0E075F00AA825302FE8A821249074EE582B436
:04076D0000028007FF
:07077100758201024907F542
:0E07780090140420E0FAA3E0FBA3E0FCA3E051
:05078600FD7E007F0074
:0E078B0090140424C3EEC5F0E0C5F095F0EF25
:0E0799006480C5F0A3E0C5F063F08095F050D9
:0107A700460B
:0E07A800EE2AF582EF3BF583E43CF5938DF0ED
:0E07B60012491E02F8C002C003C004C005C0F4
:0E07C40006C00788821249070CD007D006D065
:0E07D20005D004D003D002E582B400028005F9
:0507E00075820180108C
:0507E5000EBE00010F33
:0407EA000249078B2E
:0707EE00124906A27582000A
:0107F50022E1
:0E07F600AA824302018A821249074EE582B4AC
:040804000002800767
:07080800758201024908EDB1
:0E080F009014042AE0FAA3E0FB1ABAFF011BC2
:0E081D009014042AEAF0A3EBF0901404267560
:0E082B0086219014042CE0F0A3A3E0F0A3A318
:0D083900E0F0A3A3E0F07586007E007F00D4
:0E0846009014042AC3EEC5F0E0C5F095F0EF63
:0E0854006480C5F0A3E0C5F063F08095F0501D
:010862004A4B
:0E0863009014042CE02EF8A3E03FF9A3E0343B
:0E08710000FAA3E0FBC002C003C006C007C02F
:0E087F0000C001758201124906C1AC82D00191
:0E088D00D000D007D006D003D0028882898325
:0E089B008A938BF0EC12490A840EBE00010F06
:0408A90002490846B2
:0E08AD009014042CE02EFEA3E03FFFA3E034E5
:0E08BB0000FAA3E0FBC002C003C006C0077530
:0E08C9008200124906C1AC82D007D006D003CF
:0C08D700D0028E828F838A938BF0EC128B
:0A08E300490A84124906A27582003A
:0108ED0022E8
:0E08EE00AA82EA54FEFBC0028B821249074E1A
:0908FC00D002E582B4000280077D
:0709050075820102490A831B
:0E090C0090140430E0FBA3E0FCA3E0FDA3E0A8
:05091A00FE7F007800E3
:0E091F0090140434C3EFC5F0E0C5F095F0E885
:0E092D006480C5F0A3E0C5F063F08095F05043
:01093B003E7D
:0E093C00EF2BF582E83CF583E43DF5938EF059
:0E094A0012491E02F9C002C003C004C005C05D
:0E09580006C007C00089821249070CD000D0EB
:0E09660007D006D005D004D003D0020FBF008A
:02097400010878
:040976000249091F0A
:0E097A004390010000000000000043900200C6
:0C0988000000000000004302018A8212FF
:0A09940049074EE582B40002800717
:07099E0075820102490A8382
:0E09A5009014043AE0FAA3E0FB1ABAFF011B1B
:0E09B3009014043AEAF0A3EBF09014043675A9
:0E09C10086219014043CE0F0A3A3E0F0A3A371
:0D09CF00E0F0A3A3E0F07586007E007F003D
:0E09DC009014043AC3EEC5F0E0C5F095F0EFBC
:0E09EA006480C5F0A3E0C5F063F08095F05086
:0109F8004AB4
:0E09F9009014043CE02EF8A3E03FF9A3E03494
:0E0A070000FAA3E0FBC002C003C006C007C097
:0E0A150000C001758201124906C1AC82D001F9
:0E0A2300D000D007D006D003D002888289838D
:0E0A31008A938BF0EC12490A840EBE00010F6E
:040A3F00024909DC83
:0E0A43009014043CE02EFEA3E03FFFA3E0343D
:0E0A510000FAA3E0FBC002C003C006C0077598
:0E0A5F008200124906C1AC82D007D006D00337
:0C0A6D00D0028E828F838A938BF0EC12F3
:0A0A7900490A84124906A2758200A2
:010A83002250
:0E0A8400C0E0E5F06011146019146007146002
:050A92001814146004BB
:040A9700D0E0801912
:0B0A9B00D0E0C000A882F6D000800E62
:050AA600D0E0F0800922
:090AAB00D0E0C000A882F2D000E6
:010AB400221F
:0E0AB500C0E0E5F0601114601A1460201460B7
:090AC3002114146004D0E0802924
:0C0ACC00D0E0C000A882A69C08F6801AAA
:090AD800E59CF0A3D0E0F08014CD
:040AE100D0E08010D1
:0D0AE500D0E0C000A882C59CF208C59CF2BC
:030AF200A3D0008E
:010AF50022DE
:0E0AF600C093C083C08290FF0002C0E0C0F039
:0E0B0400A3E493C0E0A3E493251EF582D0E0A5
:0E0B1200351FF583A3E493F5F0A3E493F51BE0
:0E0B200085F01C85931DD0F0D0E0D082D083EC
:090B2E00D093C01BC01CC01D22A5
:0E0B3700C093C083C082C0E07400251EF5820A
:0E0B45007401351FF583759300E0F51DA3E0E4
:0E0B5300F51CA3E0F51BD0E0D082D083D09338
:070B6100C01BC01CC01D22D7
:0E0B6800AA93A983A88290140441AD93AC8394
:0E0B7600AB82751ECF751F0012490AF6F5827C
:010B8400224E
:0E0B8500751E18751F0012490B378882898370
:050B93008A938BF022A3
:0D0B9800751E1B751F0012490B37F58222D8
:060BA500856B82856C8364
:010BAB002227
:060BAC0085826B85836C5D
:010BB2002220
:060BB300C028C029858165
:050BB90028859B295373
:060BBE0029034329DCE5D8
:0A0BC4002824F8F5F0E52934FFAA13
:0E0BCE00F0FB7CFF7D01901404EEEAF0A3EB37
:0C0BDC00F0A3ECF0A3EDF0E528C39408B2
:0C0BE800F5F0E52994007595FFF5858572
:0E0BF400F0840586E0F582A3E0F583A3E0F52A
:0E0C020093A3E0F5F075860012491DB4AA8296
:060C1000AB838A828B8396
:070C160085288185299BD090
:040C1D0029D0282290
:060C2100C028C0298581F6
:050C270028859B295304
:060C2C0029034329DCE569
:0A0C32002824F4F5F0E52934FFAAA8
:0C0C3C00F0FB7CFF7D01E528C3940CF563
:0C0C4800F0E52994007593FFF58385F01A
:0D0C540082E0FEA3E0FFA3E0F8A3E0F9902A
:0E0C61001404E6EEF0A3EFF0A3E8F0A3E9F030
:0E0C6F00901404EAEAF0A3EBF0A3ECF0A3ED7E
:0A0C7D00F0E528C39408F5F0E5291E
:0E0C870094007595FFF58585F0840586E0F5EF
:0E0C950082A3E0F583A3E0F593A3E0F5F075EC
:0E0CA300860012491553AA82AB838A828B8386
:070CB10085288185299BD0F5
:040CB80029D02822F5
:050CBC00AA82300031A6
:0E0CC10090140444E0FBA3E0FCA3E0FDA3E0DC
:0E0CCF00FE8B828C838D938EF0EA12490A848C
:0E0CDD009014044474012BF0E43CA3F0E43DB9
:070CEB00A3F0A3EEF0800668
:060CF2008A82124902D5BE
:0E0CF80090140449E0FAA3E0FB901404497440
:070D0600012AF0E43BA3F019
:010D0D0022C3
:0C0D0E00AA82C374099AE433FBB401000C
:050D1A00E433FB60065C
:060D1F0074302AFB800F76
:030D250030010694
:060D280074572AFC800450
:040D2E0074372AFCF0
:020D32008C0330
:060D34008B8212490CBC89
:010D3A002296
:0C0D3B00AA82EAC4540FFBC0028B821293
:0E0D4700490D0ED00253020F8A8212490D0E82
:010D5500227B
:020D56007A2001
:060D5800EAB40002804431
:070D5E00C3E52333F523E593
:050D65002433F524E534
:050D6A002533F525E52D
:050D6F002633F526E526
:050D74002733F5279074
:0C0D7900140448C3E527C5F0E0C5F09560
:030D8500F0401526
:0C0D880090140448C3E0F5F0E52795F056
:080D9400F527AB2374012BF5D8
:010D9C002333
:050D9D001A02490D5887
:010DA200222E
:0E0DA30075860190140451E582F0A3E583F0FB
:0C0DB100A3E593F0A3E5F0F07586009038
:0E0DBD00140455E4F07F0090140547E4F0A301
:0E0DCB00F0A3E4F0A3F0058690140451E0F5C7
:0E0DD90082A3E0F583A3E0F593A3E0F5F075A7
:0A0DE700860012492C12E5826035E7
:0E0DF100901404557401F0901404517586019D
:0E0DFF00901404511586E00586F01586A3E0D9
:0E0E0D000586A3F01586A3E00586A3F01586E2
:0B0E1B00A3E0B2E70586A3F075860097
:0E0E26009014053B74FFF0A3F0A3747FF0A3BB
:0E0E3400744BF0058690140451E0F582A3E0A3
:0E0E4200F583A3E0F593A3E0F5F075860012AA
:0B0E5000492B36E58270040249103C7B
:020E5B007E0017
:0E0E5D0090140547E4F0A3F0A37420F0A374F2
:0E0E6B0041F0C006058690140451E0F582A304
:0E0E7900E0F583A3E0F593A3E0F5F0758600A5
:0E0E870012492C12D006E582600402490EE1E9
:0E0E950090140555E4F0A3F0A37420F0A374AC
:0E0EA30041F0C006058690140451E0F582A3CC
:0E0EB100E0F583A3E0F593A3E0F5F07586006D
:0E0EBF0012492D0FAA82AB83AC93ADF0D00682
:0E0ECD0090140451EAF0A3EBF0A3ECF0A3EDB7
:060EDB00F00E02490E5D5D
:020EE1008E077A
:0E0EE30090140547E4F0A3F0A37480F0A3740C
:0E0EF1003FF0C007058690140451E0F582A37F
:0E0EFF00E0F583A3E0F593A3E0F5F07586001F
:0E0F0D0012492C12A982D0078F06E970040247
:030F1B00490F6A11
:0E0F1E009014050EE4F0A3F0A37420F0A37469
:0E0F2C0041F0C007058690140451E0F582A341
:0E0F3A00E0F583A3E0F593A3E0F5F0758600E3
:0E0F480012492370AA82AB83AC93ADF0D007A0
:0E0F560090140451EAF0A3EBF0A3ECF0A3ED2D
:060F6400F01F02490EE33C
:070F6A0090140455E0600D36
:0D0F7100C00675822D124902D5D0068012EF
:070F7E009014044FE0600B2A
:0B0F8500C00675822B124902D5D00671
:0C0F90009014044BE4F09014044DF09019
:0A0F9C0014044EF09014044FF0907E
:0E0FA600140450E4F0C006058690140451E0D7
:0E0FB400F582A3E0F583A3E0F593A3E0F5F04A
:0E0FC20075860012490DA3D006C00675826523
:0A0FD000124902D5D006EE30E70FFB
:0E0FDA00C00675822D124902D5D006C3E49ED2
:010FE800FE0A
:0E0FE900EE3395E0F8901404F6740AF0E4A3D9
:0E0FF700F0C006C0008E82888312491FA8D069
:0E10050000D00674302582F9C006C000898232
:0E101300124902D5D000D006901404F2740ADF
:0E102100F0E4A3F08E82888312491E6C7430B6
:0D102F002582FE8E82124902D5024915521B
:0E103C00058690140451E0F582A3E0F583A32D
:0E104A00E0F593A3E0F5F0758600124928AC9E
:0E105800AE82A883A993AAF090140456EEF07D
:0C106600A3E8F0A3E9F0A3EAF0058690EF
:0E107200140456E0F582A3E0F583A3E0F593A5
:0E108000A3E0F5F0758600124929BDAE82A8E6
:0E108E0083A993AAF0901404F8EEF0A3E8F002
:0E109C00A3E9F0A3EAF0058690140451E0F5F4
:0E10AA0082A3E0F583A3E0F593A3E0F5F075D3
:0E10B80086001249201DAA82AB83AC93ADF0D6
:0E10C6009014045AEAF0A3EBF0A3ECF0A3EDB3
:0310D400F07E00AB
:0E10D7008E0790140456E0F5F0A3E042F0A35B
:0C10E500E042F0A3E042F0E5F0700402ED
:0310F10049119F03
:0A10F4008E000EE8245EFFE43404D1
:0C10FE00F8E43414F990140506740AF0AC
:0E110A00E4A3F0A3F0A3F0C006C007C000C02D
:0E11180001058690140456E0F582A3E0F583ED
:0C112600A3E0F593A3E0F5F0758600123D
:0E11320049218DD001D000D007D006743025A1
:0E11400082FBE43583FCE43593FDE435F0FAE0
:0E114E008F8288838993EBF090140521740A38
:0D115C00F0E4A3F0A3F0A3F0C00605869018
:0E116900140456E0F582A3E0F583A3E0F593AD
:0E117700A3E0F5F075860012492753AA82AB5B
:0E11850083AC93ADF0D00690140456EAF0A3AC
:0C119300EBF0A3ECF0A3EDF0024910D744
:03119F00EE7016D9
:0B11A20074012EFFEE245EF582E434A1
:0A11AD0004F583E43414F593743064
:0111B700F047
:0811B8009014044CE0B4FF07A1
:0711C0009014044C7406F0CA
:0E11C7009014044CE0FE8E00700402491320C8
:0C11D500901404E2EFF0901404DEEEF041
:0E11E100C0079014050EE4F0A3F0A37420F0F4
:0E11EF00A37441F0C00705869014045AE0F581
:0E11FD0082A3E0F583A3E0F593A3E0F5F0757F
:0E120B00860012492370AA82AB83AC93ADF02B
:0E121900D0079014045AEAF0A3EBF0A3ECF017
:0E122700A3EDF005869014045AE0F582A3E0D2
:0E123500F583A3E0F593A3E0F5F075860012B3
:0C1243004928ACAE82AF83A993AAF090BA
:0E124F00140456EEF0A3EFF0A3E9F0A3EAF0CA
:0E125D00901404E2E0FA901404E2E02401F0A0
:0A126B00EA245EF584E43404F585FE
:0C127500E43414F59590140456E0243085
:0E128100FDA3E03400FEA3E03400FFA3E03440
:0E128F0000F9ED0586F0758600C00705869013
:0E129D00140456E0F582A3E0F583A3E0F59378
:0E12AB00A3E0F5F0758600124929BDAA82ABBA
:0E12B90083AC93ADF0D007901404F8EAF0A3D4
:0D12C700EBF0A3ECF0A3EDF0C0070586905E
:0E12D40014045AE0F582A3E0F583A3E0F5933D
:0E12E200A3E0F5F07586001249201DAA82AB2C
:0E12F00083AC93ADF0D0079014045AEAF0A33B
:0E12FE00EBF0A3ECF0A3EDF0901404DEE0148E
:0E130C00F0901404DEE0F8D007901404DEE048
:06131A006004024911E12C
:091320008F029014044CE0600AF5
:0A1329009014044CE02401FB800244
:021333007B003D
:0A133500EB2AFA90140455E0700E44
:07133F009014044FE0700759
:0713460090140450E0600167
:01134D000A95
:0B134E009014044DE060040249145D9F
:0E1359009014044BC3E8C5F0E0C5F095F040D9
:05136700040249145DC1
:0B136C009014044EE07004024913EAE4
:0713770090140455E0601121
:0E137E00C002C00775822D12490CBCD007D0EA
:03138C0002802EAE
:07138F009014044FE060110F
:0E139600C002C00775822B12490CBCD007D0D4
:0313A400028016AE
:0713A70090140450E0600FF8
:0E13AE00C002C00775822012490CBCD007D0C7
:0113BC00022E
:0613BD009014044BE0FB5C
:0E13C3008B041B9014044BEBF0C3EA9C400417
:0413D100024914A316
:0E13D500C002C003C00775823012490CBCD0A4
:0713E30007D003D00280D9FE
:0613EA009014044BE0FB2F
:0E13F0008B041B9014044BEBF0C3EA9C5015C9
:0E13FE00C002C003C00775822012490CBCD08B
:07140C0007D003D00280DDD0
:0714130090140455E0601382
:0E141A00C002C00775822D12490CBCD007D04D
:0514280002024914A3BB
:07142D009014044FE0601170
:0E143400C002C00775822B12490CBCD007D035
:0314420002805EC7
:0714450090140450E0605711
:0E144C00C002C00775822012490CBCD007D028
:03145A00028046C7
:07145D0090140455E060113A
:0E146400C002C00775822D12490CBCD007D003
:0314720002802EC7
:071475009014044FE0601128
:0E147C00C002C00775822B12490CBCD007D0ED
:03148A00028016C7
:07148D0090140450E0600F11
:0E149400C002C00775822012490CBCD007D0E0
:0114A2000247
:0514A300EF14F88803BE
:0A14A800EB245EF582E43404F583C2
:0C14B200E43414F593E0FCC002C003C059
:0E14BE00078C8212490CBCD007D003D0028BE1
:0514CC00041BEC70D7C9
:0714D1009014044CE060459B
:0E14D800C002C00775822E12490CBCD007D08E
:0914E600028F039014044CE0FC99
:0614EF008C051CED6028D5
:0A14F5008B050BED245EF582E43454
:0A14FF0004F583E43414F593E0FDD6
:0E150900C002C003C0048D8212490CBCD00485
:06151700D003D00280D2D7
:07151D009014044DE0602E64
:0E1524009014044BC3EAC5F0E0C5F095F050FA
:011532001F99
:061533009014044BE0FBE4
:081539008B041BC3EA9C501156
:0E154100C002C00375822012490CBCD003D03A
:03154F000280E730
:011552002276
:0E155300AA82AB83AC93ADF090140449E4F08F
:0E156100A3F090140444EAF0A3EBF0A3ECF026
:08156F00A3EDF0EA4B4C7004FF
:04157700C20080022C
:02157B00D2009C
:0E157D00901404E6E0FAA3E0FBA3E0FCA3E078
:0D158B00FDEAB4001BEBB40017ECB4001334
:09159800901404E674FBF0A37446
:0A15A1001DF0A37449F0A37402F0DA
:0E15AB00901404E6E0FAA3E0FBA3E0FCA3E04A
:0E15B900FD8A828B838C938DF012491E02FEF8
:0E15C700901404E674012AF0E43BA3F0E43C27
:0E15D500A3F0A3EDF08E02EE700402491D811A
:0615E300EAB425028004B9
:0415E90002491D771F
:0515ED00C203C204C2AC
:0415F20005C206C266
:0815F6000790140448E4F0C260
:0415FE0008C209C254
:0C1602000A7B007CFF901404E6E0FDA3CE
:08160E00E0FEA3E0FFA3E0F8F9
:0E1616008D828E838F9388F012491E02F9A3F5
:0E162400AD82AE83AF93A8F0901404E6EDF013
:0E163200A3EEF0A3EFF0A3E8F08902EAB425DE
:011640000A9F
:0A1641008A8212490CBC024915AB65
:0E164B00C002C003C004C005C006C007C00036
:0E1659008A8212492897D000D007D006D0050B
:0E166700D004D003D002E58270040249172996
:06167500ECB4FF0280044A
:04167B00024916DB2F
:0E167F00C0048B8475850090140553740AF026
:0E168D00E4A3F0C002C004C005C006C007C040
:0E169B000085848285858312492CEEAB82A9DE
:0E16A90083D000D007D006D005D004D002EACE
:0E16B70024D0FA7C00EA2BFAEC39FC8A03EB13
:0716C500B400047401800170
:0116CC00E439
:0816CD00D00470040249161656
:0616D500D20402491616C2
:0E16DB00C0038C84EC3395E0F5859014055324
:0E16E900740AF0E4A3F0C002C003C005C006FE
:0E16F700C007C00085848285858312492CEED1
:0E170500AC82A983D000D007D006D005D00357
:0E171300D002EA24D0FB7A00EB2CFBEA39FA74
:081721008B04D00302491616E7
:04172900EAB42E06EA
:06172D007C0002491616C3
:0E173300C002C003C004C005C006C007C0004D
:0E1741008A82124938F6D000D007D006D005B3
:0C174F00D004D003D002E58224FF9201F8
:03175B0030010357
:03175E005302DF54
:08176100EAB42004024917D785
:06176900EAB42B028062CD
:06176F00EAB42D028056D1
:06177500EAB442028062AA
:06177B00EAB4430280689D
:08178100EAB4440402491A2FE6
:08178900EAB4460402491A55B6
:08179100EAB4490402491A2FD1
:06179900EAB44C0280449A
:08179F00EAB44F0402491A3AB2
:0817A700EAB45004024919687C
:0817AF00EAB4530402491834A6
:0817B700EAB4550402491A438B
:0817BF00EAB4580402491A4C77
:0417C70002491A5960
:0617CB00D20302491616CC
:0617D100D20502491616C4
:0617D700D20602491616BD
:0617DD00D20802491616B5
:0617E300D20902491616AE
:0E17E900901404EAE0FAA3E0FDA3E0FEA3E002
:0E17F700FFEA24FEFAED34FFFDEE34FFFE9013
:0E1805001404EAEAF0A3EDF0A3EEF0A3EFF076
:0E1813008A828D838E938FF012491E2EAA9C1E
:0E182100FDC003C0048A8212490CBCD004D062
:05182F000302491A67E5
:0E183400901404EAE0FAA3E0FDA3E0FEA3E0B6
:0E184200FFEA24FCFAED34FFFDEE34FFFE90C9
:0E1850001404EAEAF0A3EDF0A3EEF0A3EFF02B
:0E185E008A828D838E938FF012491E2EAA9CD3
:0C186C00FDA312491E2EAE9CFF8A238DA6
:04187800248E258F06
:0C187C0026EAB40018EDB40014EEB4002D
:01188800104F
:041889007523FB7553
:03188D00241D75A2
:0318900025497572
:0618930026027A06801E09
:0A189900C003C00485238285248368
:0718A3008525938526F01254
:0D18AA0049390BAD82AE83D004D0038D020E
:0318B70020032BE0
:0518BA00C3EA9B50266B
:0618BF00C3EB9AFB8B0550
:0B18C5008D061D8D03EEB4000280159F
:0E18D000C002C004C00575822012490CBCD0B5
:0718DE0005D004D00280E0F8
:0718E5008523828524838521
:0618EC0025938526F01291
:0618F200491E02FD603CEE
:0718F800852382852483850E
:0A18FF0025938526F074012582FD73
:0C190900E43583FEE43593FFA8F08D2345
:051915008E248F2588DF
:0C191A002612491E02FDC002C003C004DA
:0E1926008D8212490CBCD004D003D00280B1D7
:0719340020030402491A67B9
:09193B00C3EA9B400402491A674B
:06194400C3EB9AFB8B05CA
:0D194A008D061D8D03EEB4000402491A67DE
:0E195700C004C00575822012490CBCD005D01A
:031965000480E219
:0E196800901404EAE0FDA3E0FEA3E0FFA3E07C
:0E197600F8ED24FCFDEE34FFFEEF34FFFF9091
:0E1984001404EAEDF0A3EEF0A3EFF0A3E8F0F8
:0E1992008D828E838F9388F012491E2EAD9C9D
:0C19A000FEA312491E2EAF9CF88D238E72
:0419AC00248F2588D7
:0819B00026C3740395265004C0
:0419B8007D04800228
:0219BC00AD2656
:0E19BE00ED90491DF593FDC003C0048D82120B
:0E19CC00490CBCD004D003C003C00475823A9D
:0E19DA0012490CBCD004D003C003C0047582B7
:0E19E8003012490CBCD004D003C003C00475FB
:0E19F600827812490CBCD004D003C003C00498
:0C1A040085258212490D3BD004D003C0A0
:0C1A100003C00485248212490D3BD00461
:0A1A1C00D003C003C004852382122A
:091A2600490D3BD004D0038038C7
:0B1A2F00D20790140448740AF0802DC8
:091A3A00901404487408F08024A3
:091A430090140448740AF0801BA1
:091A4C00901404487410F080129B
:041A5500D20A800E23
:0E1A5900C003C0048A8212490CBCD004D00322
:071A6700200A0402491AF7EE
:0E1A6E00901404EAE0FDA3E0FEA3E0FFA3E075
:0E1A7C00F8ED24FCFDEE34FFFEEF34FFFF908A
:0E1A8A001404EAEDF0A3EEF0A3EFF0A3E8F0F1
:0E1A98008D828E838F9388F012491E2EAD9C96
:0C1AA600FEA312491E2EAF9CF88D238E6B
:041AB200248F2588D0
:081AB600269014044BEBF090A4
:0B1ABE0014044CECF09014044DE4A262
:091AC9000333F09014044EE4A272
:091AD2000433F09014044FE4A267
:091ADB000533F090140450E4A25C
:0C1AE4000633F08D828E838F9388F01201
:071AF000490DA3024915ABEB
:0C1AF70090140448E0B40004024915AB50
:071B030020080402491B60E9
:0E1B0A00901404EAE0FCA3E0FDA3E0FEA3E0DB
:0A1B1800FF1CBCFF051DBDFF011EF0
:0E1B2200901404EAECF0A3EDF0A3EEF0A3EFB4
:0E1B3000F08C828D838E938FF012491E02FC82
:0A1B3E003395E0FDFEFF8C238D249B
:051B48008E258F263000
:061B4D00070402491C031D
:071B530075240075250075E3
:061B5A00260002491C03F5
:071B600020090402491BB437
:0E1B6700901404EAE0FCA3E0FDA3E0FEA3E07E
:0E1B7500FFEC24FCFCED34FFFDEE34FFFE908F
:0E1B83001404EAECF0A3EDF0A3EEF0A3EFF0F3
:0E1B91008C828D838E938FF012491E2EAC9C99
:0C1B9F00FDA312491E2EAE9CFF8C238D6E
:041BAB00248E258FD0
:051BAF002602491C03A1
:0E1BB400901404EAE0FCA3E0FDA3E0FEA3E031
:0E1BC200FFEC24FEFCED34FFFDEE34FFFE9040
:0E1BD0001404EAECF0A3EDF0A3EEF0A3EFF0A6
:0E1BDE008C828D838E938FF012491E2EAC9C4C
:0A1BEC00FD3395E0FEFF8C238D24ED
:051BF6008E258F262062
:021BFB000706DB
:061BFD00752500752600AD
:031C030030072285
:051C0600E52630E71B9C
:0A1C0B00C3E49523FCE49524FDE4F6
:081C15009525FEE49526FF8CE5
:041C1D00238D248E61
:051C2100258F26800262
:021C2600C207F3
:041C2800D2027C0068
:0C1C2C00752700C003C00412490D56D0FB
:0A1C380004D00320020BD0F0E527D2
:071C4200C442F0C0F0800471
:041C4900E527C0E0EB
:071C4D000CB202E523600266
:021C540080D638
:041C5600E52460021F
:021C5A0080D038
:041C5C00E525600218
:021C600080CA38
:081C6200E52670047401800105
:011C6A00E495
:061C6B00FD8C02ED60BBE0
:041C7100EBB40002CE
:021C75007B01F1
:031C770020042A1C
:031C7A002003271D
:061C7D0074012AFC8B0536
:0B1C8300C3EC9DE433FE8D03EE601601
:0E1C8E00C002C004C00575822012490CBCD0F3
:081C9C0005D004D0021D80DF19
:031CA400300714F2
:0E1CA700C002C00375822D12490CBCD003D0C0
:061CB50002EB14FB80327B
:061CBB00EAB40002802CD7
:031CC100300514D7
:0E1CC400C002C00375822B12490CBCD003D0A5
:061CD20002EB14FB80157B
:031CD800300612C1
:0E1CDB00C002C00375822012490CBCD003D099
:041CE90002EB14FBFB
:031CED00200325AC
:021CF0008B0463
:0A1CF2008C051C8C03C3EA9D5026EC
:031CFC00300404AD
:041CFF007D308002B2
:021D03007D2041
:0E1D0500C002C0048D8212490CBCD004D00272
:021D130080DD71
:051D1500C3EA9B50062B
:061D1A00C3EB9AFB8002FE
:021D20007B0046
:061D22008A041AEC6026A1
:0A1D2800B20220020AD0E000C0E081
:051D3200C4540F800401
:041D3700D0E0540F95
:0A1D3B00F527C002C00385278212BD
:091D4500490D0ED003D00280D438
:071D4E00200304024915AB5C
:021D55008B02FF
:061D57008A031AEB600490
:041D5D007B01800284
:021D61007B0005
:071D6300EB7004024915AB0F
:0D1D6A00C00275822012490CBCD00280E03E
:0A1D77008A8212490CBC024915AB28
:031D810030001E11
:0E1D840075820012490CBC90140449E024FF43
:0E1D9200F584A3E034FFF58585848285858382
:021DA0008011B0
:0E1DA20075860190140449E0F582A3E0F583F4
:031DB00075860035
:011DB300220D
:0E1DB400AA82AB83AC93ADF0901404EEE0FE77
:0E1DC200A3E0FFA3E0F8A3E0F9901404E6EA22
:0E1DD000F0A3EBF0A3ECF0A3EDF0901404EA06
:0C1DDE00EEF0A3EFF0A3E8F0A3E9F09012
:0A1DEA0000000075F00012491553C7
:011DF40022CC
:061DF500495843502D0087
:071DFB003C4E554C4C3E002C
:0E1E0200E5F0601114601714601714601714D7
:071E100014600474FF80164A
:091E1700C000A882E6D000800D95
:031E2000E0800A55
:031E2300938007A2
:071E2600C000A882E2D00019
:011E2D002292
:0E1E2E00E5F0601114601A14601E1460231495
:071E3C0014600474FF80280C
:0C1E4300C000A882869C08E60582801A78
:071E4F00E0F59CA3E0801503
:081E560093F59CE4A393800DB9
:0B1E5E00C000A882E2F59C08E20582AB
:021E6900D000A7
:011E6B002254
:081E6C00E58333E433FC600B55
:0B1E7400C3E49582FDE49583FE80042A
:041E7F00AD82AE83FF
:0E1E83008D848E85901404F2A3E033E433FDC9
:021E91006012DD
:0E1E9300901404F2E0D3F43400FEA3E0F43423
:041EA10000FF8009B5
:091EA500901404F2E0FEA3E0FF3A
:0E1EAE00901404F4EEF0A3EFF0C004C005851C
:0E1EBC00848285858312491EE1AA82AB83D001
:0B1ECA0005D0048A828B83EC6D600B56
:0B1ED500C3E49582F582E49583F58359
:011EE00022DF
:0A1EE1008582848583857C007D00E6
:0D1EEB00901404F4A3E0235401FE600402EF
:031EF800491F4C33
:0E1EFB00901404F4E0FEA3E0CE25E0CE33FF09
:0E1F0900901404F4EEF0A3EFF0901404F4C36F
:0E1F1700E584C5F0E0C5F095F0E585C5F0A3C2
:071F2500E0C5F095F0501932
:0E1F2C00901404F4E0FEA3E0C313CE13CEFF26
:0B1F3A00901404F4EEF0A3EFF0800719
:071F45000D8D0402491EEBA3
:0E1F4C00901404F4C3E584C5F0E0C5F095F0F0
:0C1F5A00E585C5F0A3E0C5F095F0401A45
:0E1F6600901404F4C3E0F5F0E58495F0FDA3BB
:0C1F7400E0F5F0E58595F0FE8D848E858B
:0E1F8000901404F4E0FDA3E0C313CD13CDFED6
:0E1F8E00901404F4EDF0A3EEF08C051CED6051
:051F9C000402491F4C86
:061FA10085848285858322
:011FA7002217
:081FA800E58333E433FC600B18
:0B1FB000C3E49582FDE49583FE8004ED
:041FBB00AD82AE83C2
:0E1FBF008D848E85901404F6A3E033E433FD88
:021FCD006012A0
:0E1FCF00901404F6E0D3F43400FEA3E0F434E2
:041FDD0000FF800978
:091FE100901404F6E0FEA3E0FFF9
:0E1FEA0090140504EEF0A3EFF0C004C00585CE
:0E1FF800848285858312492119AA82AB83D089
:0B20060005D0048A828B83EC6D600B18
:0B201100C3E49582F582E49583F5831B
:01201C0022A1
:0E201D00AA82AB83AC93ADF0901404FCEAF001
:0E202B00A3EBF0A3ECF0A3EDF090140500750C
:0E2039008601901404F8E01586F0A30586A336
:0E204700E01586F0A30586A3E01586F0A3053C
:0E20550086A3E01586F090140500E0A3FAE0E3
:0D206300A3FBE0A3FCE0FDEA4B4C4D701B1D
:0E207000901404FCE0A3FAE0A3FBE0A3FCE064
:0D207E00FD8A828B838C938DF0024921181E
:0E208B00901404FCE0A3FAE0A3FBE0A3FCE049
:07209900FDEA4B4C4D701EE7
:0E20A00090140500E0A3FAE0A3FBE0A3FCE02F
:0D20AE00FDB2E7FD8A828B838C938DF002DA
:0320BB00492118A0
:0E20BE0090140500E0A3FAE0A3FBE0A3FCE011
:0E20CC00FD63058090140500EAF0A3EBF0A37D
:0E20DA00ECF0A3EDF0901404FCE0A3FAE0A3F8
:0E20E800FBE0A3FCE0FD90140500E0A3FEE089
:0E20F600A3FFE0A3F8E0F99014057FEEF0A33D
:0E210400EFF0A3E8F0A3E9F08A828B838C93BE
:062112008DF01249332894
:0121180022A4
:0C2119008582848583857C007D007E101B
:0C212500E58533920BAF84E585CF25E003
:0E213100CF33F88F8488858C07EDCF25E0CF63
:09213F0033F88F048805300B030E
:032148004304014C
:0E214B0090140504C3ECC5F0E0C5F095F0ED6E
:0A215900C5F0A3E0C5F095F0401BAF
:0E21630090140504C3E0F5F0EC95F0FFA3E046
:0D217100F5F0ED95F0F88F0488054384012A
:04217E00DE028004F9
:0421820002492125C8
:062186008584828585833B
:01218C002230
:0E218D007586019014050AE582F0A3E583F043
:0E219B00A3E593F0A3E5F0F07586007E007FCB
:0121A9000035
:0E21AA0090140506A3A3A3E0235401F86004DB
:0421B8000249227A3C
:0E21BC00C00675F00290140506E0F8A3E0F9E5
:0821CA00A3E0FEA3E0FA800D82
:0D21D200E825E0F8E933F9EE33FEEA33FAD0
:0E21DF00D5F0F090140506E8F0A3E9F0A3EEA9
:0C21ED00F0A3EAF09014050A758601903A
:0E21F9001405061586C3E0758601C5F0E07575
:0E2207008600C5F095F0A3E0758601C5F0A332
:0E221500E0758600C5F095F0A3E0758601C562
:0E222300F0A3E0758600C5F095F0A3E0758687
:0E22310001C5F0A3E0758600C5F095F0E4331A
:04223F00D006603035
:0C22430090140506A3A3A3E0C313FD1232
:0E224F004938EEE013FC124938EEE013FB12A2
:0E225D004938EEE013FA90140506F0A3EBF0FA
:08226B00A3ECF0A3EDF08007E5
:072273000F8F06024921AAAA
:02227A008E02D2
:0E227C00901405067586019014050A1586C398
:0E228A00758601E0758600C5F0E0C5F095F0A0
:0E229800758601A3E0758600C5F0A3E0C5F0D1
:0E22A60095F0758601A3E0758600C5F0A3E0F3
:0E22B400C5F095F0758601A3E0758600C5F0B3
:0C22C200A3E0C5F095F050040249231E73
:0E22CE00901405067586019014050A1586C346
:0E22DC00E0F5F00586E095F0FB1586A3E0F531
:0E22EA00F00586A3E095F0FC1586A3E0F5F064
:0E22F8000586A3E095F0FD1586A3E0F5F00540
:0E23060086A3E095F0FE7586009014050AEBA4
:0A231400F0A3ECF0A3EDF0A3EEF04F
:0C231E0090140506A3A3A3E0C313FE1255
:0E232A004938EEE013FD124938EEE013FC12C4
:0E2338004938EEE013FB90140506F0A3ECF01C
:0D234600A3EDF0A3EEF08A031AEB60040291
:0323530049227CA0
:0E2356007586019014050AE0F582A3E0F58378
:0B236400A3E0F593A3E0F5F075860000
:01236F00224B
:0E237000AA82AB83AC93ADF090140512EAF094
:0E237E00A3EBF0A3ECF0A3EDF09014051675A0
:0E238C0086019014050EE01586F0A30586A3C9
:0E239A00E01586F0A30586A3E01586F0A305E6
:0E23A80086A3E01586F090140512E0A3FAE07B
:0D23B600A3FBE0A3FCE0FDEA4B4C4D6015DD
:0E23C30090140516E0A3FAE0A3FBE0A3FCE0F3
:0723D100FDEA4B4C4D700BBF
:0B23D8009000000075F0000249275241
:0E23E30090140512E0A3FAE0A3FBE0A3FCE0D7
:0E23F100FD235401FA90140516E0A3FBE0A3AF
:0E23FF00FCE0A3FDE0FE235401FB901405203A
:0E240D00EA6BF090140512E0A3FBE0A3FCE0E4
:0E241B00A3FDE0FE8D03EEA2E7CB33CB33CB67
:0E2429005401FC7D007E007C007D007E00EBF7
:0E2437002482FBEC34FFFCED34FFFDEE34FF9D
:0E244500FE9014051EEBF0A3ECF090140516AB
:0E245300E0A3FBE0A3FCE0A3FDE0FE8D03EEA2
:0E246100A2E7CB33CB33CB5401FC7D007E00D1
:0E246F007C007D007E009014051EE0FFA3E0BF
:0E247D00F8E03395E0F9FAEB2FFBEC38FCEDBC
:0E248B0039FDEE3AFE9014051EEBF0A3ECF0C6
:0E24990090140512E0A3FAE0A3FBE0A3FCE020
:0E24A700FD53047F7D0043048090140512EA6B
:0E24B500F0A3EBF0A3ECF0A3EDF090140516ED
:0E24C300E0A3FAE0A3FBE0A3FCE0FD53047FDE
:0E24D1007D0043048090140516EAF0A3EBF0A2
:0E24DF00A3ECF0A3EDF090140512E0A3FAE0D8
:0E24ED00A3FBE0A3FCE0FD8B028C038D047DBD
:0E24FB000090140516E0A3FEE0A3FFE0A3F896
:0E250900E0F98F0688078900790090140573A9
:0E251700EEF0A3EFF0A3E8F0A3E9F08A828BC8
:0E252500838C938DF012493187AA82AB83AC70
:0E25330093ADF09014051AEAF0A3EBF0A3ECC0
:0E254100F0A3EDF090140512E0A3FAE0A3FB66
:0C254F00E0A3FCE0FD7B007C007D009020
:0E255B00140516E0A3FEE0A3FFE0A3F8E0F9EC
:0E2569008F0688078900790090140573EEF044
:0E257700A3EFF0A3E8F0A3E9F08A828B838C37
:0E258500938DF012493187AA82AB83AC93ADDF
:0E259300F08B028C038D047D009014051AE07D
:0E25A1002AF0A3E03BF0A3E03CF0A3E03DF005
:0E25AF0090140516E0A3FAE0A3FBE0A3FCE005
:0E25BD00FD7B007C007D0090140512E0A3FE63
:0E25CB00E0A3FFE0A3F8E0F98F06880789007F
:0E25D900790090140573EEF0A3EFF0A3E8F084
:0C25E700A3E9F08A828B838C938DF012A4
:0E25F300493187AA82AB83AC93ADF08B028C8A
:0E260100038D047D009014051AE02AF0A3E07A
:0E260F003BF0A3E03CF0A3E03DF09014051A70
:07261D00A3A3A3E030E7399D
:0E2624009014051AE02480F0A3E03400F0A327
:0E263200E03400F0A3E03400F09014051AA389
:0E264000E0FAA3E0FBA3E0FC7D009014051A75
:0C264E00EAF0A3EBF0A3ECF0A3EDF00227
:03265A004926BF4F
:0E265D009014051AE02440F0A3E03400F0A32E
:0E266B00E03400F0A3E03400F09014051AE013
:0E267900FAA3E0A2E7CA33CA33CA5401FBA396
:0E268700E025E04BFBE0FCA3E0A2E7CC33CC67
:0E26950033CC5401FD9014051AEAF0A3EBF0CB
:0E26A300A3ECF0A3EDF09014051EE024FFFA66
:0E26B100A3E034FFFB9014051EEAF0A3EBF04B
:0E26BF009014051AE0F0A3E0F0A3E0547FF0C1
:0A26CD00A3E0F090140520E0600A7D
:0A26D7007A007B007C007D80800803
:0826E1007A007B007C007D0003
:0E26E9009014051EE0FEA3E0FFE03395E0F83C
:0626F700F975F018800DDA
:0D26FD00EE25E0FEEF33FFE833F8E933F996
:0E270A00D5F0F0EE4202EF4203E84204E9424D
:0E271800059014051AE04202A3E04203A3E07C
:0E2726004204A3E0420590140512EAF0A3EB72
:0E273400F0A3ECF0A3EDF090140512E0A3FA70
:0E274200E0A3FBE0A3FCE0FD8A828B838C9376
:022750008DF00A
:012752002264
:0E275300AA82AB83AC93ADF090140525E4F0A0
:08276100A3F0A3F0A3F07E2019
:0C276900C006ED33920C75F002AF02A820
:0727750003A904AE05800D6D
:0D277C00EF25E0FFE833F8E933F9EE33FE16
:0E278900D5F0F08F02880389048E0575F002EA
:0E27970090140525E0FEA3E0FFA3E0F8A3E008
:0327A500F9800DAB
:0D27A800EE25E0FEEF33FFE833F8E933F9EA
:0E27B500D5F0F090140525EEF0A3EFF0A3E8A8
:0927C300F0A3E9F0D006300C117E
:0E27CC0090140525E04401F0A3E0F0A3E0F036
:0327DA00A3E0F089
:0E27DD0090140521758601901405251586C3FC
:0E27EB00758601E0758600C5F0E0C5F095F03A
:0E27F900758601A3E0758600C5F0A3E0C5F06B
:0E28070095F0758601A3E0758600C5F0A3E08C
:0E281500C5F095F0758601A3E0758600C5F04C
:0C282300A3E0C5F095F05004024928869F
:0E282F00C0069014052175860190140525152C
:0E283D0086C3E0F5F00586E095F0FF1586A352
:0E284B00E0F5F00586A3E095F0F81586A3E011
:0E285900F5F00586A3E095F0F91586A3E0F5ED
:0C286700F00586A3E095F0FE7586009059
:0E287300140525EFF0A3E8F0A3E9F0A3EEF0C2
:05288100430201D00636
:04288600DE028004EA
:04288A00024927696F
:08288E008A828B838C938DF08C
:01289600221F
:05289700AA82BA300026
:02289C00400AF0
:06289E00C374399A4004E6
:0428A4007582012216
:0328A80075820036
:0128AB00220A
:0E28AC00AA82AB83AC93ADF090140529EAF03C
:0E28BA00A3EBF0A3ECF0A3EDF090140529E0E1
:0E28C800A3FAE0A3FBE0A3FCE0FDEA4B4C4DBD
:0228D60060158B
:0E28D80090140529E0A3FAE0A3FBE0A3FCE0C6
:0728E600FD235401FA600B11
:0B28ED009000000075F000024929BCBB
:0E28F80090140529E0A3FAE0A3FBE0A3FCE0A6
:0E290600FD8C02EDA2E7CA33CA33CA5401FBAE
:0E2914007C007D007B007C007D00EA246AFAD6
:0D292200EB34FFFBEC34FFFCED34FFFD90C7
:0E292F0014052DEAF0A3EBF090140529E0A3A7
:0E293D00FAE0A3FBE0A3FCE0FD53047F7D0065
:0E294B009014052FEAF0A3EBF0EC4480A3F00B
:0E295900A3EDF09014052DE0D3F43400FAA3A2
:0E296700E0F43400FB8AF005F09014052FE038
:0E297500FAA3E0FBA3E0FCA3E0FDE03392D266
:02298300800EC4
:0E298500A2D2ED13FDEC13FCEB13FBEA13FAE8
:0E299300D5F0EF9014052FEAF0A3EBF0A3ECC3
:0E29A100F0A3EDF09014052FE0FAA3E0FBA3E5
:0D29AF00E0FCA3E0FD8A828B838C938DF009
:0129BC0022F8
:0E29BD0075860190140533E582F0A3E583F0E2
:0C29CB00A3E593F0A3E5F0F07586009002
:0E29D700140533E0F5F0A3E042F0A3E042F077
:0829E500A3E042F0E5F0700BE5
:0B29ED009000000075F00002492B353F
:0429F8007E967F0048
:0A29FC0090140533A3A3A3E0603597
:0C2A060090140533A3A3A3E0C313FB123C
:0E2A12004938EEE013FA124938EEE013F912DB
:0E2A20004938EEE013F890140533F0A3E9F006
:0D2A2E00A3EAF0A3EBF00EBE00C40F80C1C0
:042A3B008E028F0375
:0E2A3F0090140533C3E09400A3E09400A3E0DC
:0E2A4D009480A3E09400E433FC8A058B06EC31
:062A5B00700402492A9DEF
:0E2A610075F00290140533E0FCA3E0FFA3E043
:062A6F00F8A3E0F9800D60
:0D2A7500EC25E0FCEF33FFE833F8E933F91E
:0E2A8200D5F0F090140533ECF0A3EFF0A3E8CC
:092A9000F0A3E9F01ABAFF011BE2
:042A990002492A3F85
:0E2A9D0090140533E0FCA3E0FFA3E0547FF8A3
:0E2AAB007900ECB4FF1FEFB4FF1BE8B47F17F7
:042AB900E9B4001369
:0E2ABD0090140533E4F0A3F0A3F0A3F074012D
:052ACB002AFDE43BFEC2
:0E2AD00090140533E0F0A3E0F0A3E0547FF093
:0E2ADE00A3E0F0EE3395E0FAFB75F018800DE2
:0D2AEC00ED25E0FDEE33FEEA33FAEB33FB9F
:0E2AF900D5F0F090140533E04205A3E042064C
:0E2B0700A3E04202A3E0420390140537EDF074
:0E2B1500A3EEF0A3EAF0A3EBF090140537E076
:0E2B2300A3FAE0A3FBE0A3FCE0FD8A828B8313
:042B31008C938DF004
:012B3500227D
:0E2B3600AA82AB83AC93ADF09014053FEAF099
:0E2B4400A3EBF0A3ECF0A3EDF09014054375A5
:0E2B520086019014053BE01586F0A30586A3CE
:0E2B6000E01586F0A30586A3E01586F0A30518
:0E2B6E0086A3E01586F09014053FE0A3FAE080
:0E2B7C00A3FBE0A3FCE0FD20E70402492BD9F7
:0E2B8A0090140543E0A3FAE0A3FBE0A3FCE0F7
:042B9800FD30E73DE8
:0E2B9C0090140543E0A3FAE0A3FBE0A3FCE0E5
:0E2BAA00FD9014053FE0A3FEE0A3FFE0A3F8BA
:0E2BB800E0F9C3EE9AEF9BE89CE964808DF093
:072BC60063F08095F0500759
:072BCD0075820102492C1181
:052BD40075820080384D
:0E2BD9009014053FE0A3FAE0A3FBE0A3FCE0AC
:0E2BE700FD90140543E0A3FEE0A3FFE0A3F879
:0E2BF500E0F9C3EE9AEF9BE89CE964808DF056
:072C030063F08095F050041E
:042C0A0075820122AC
:032C0E00758200CC
:012C110022A0
:0E2C1200AA82AB83AC93ADF09014054BEAF0B0
:0E2C2000A3EBF0A3ECF0A3EDF09014054F75BC
:0E2C2E00860190140547E01586F0A30586A3E5
:0E2C3C00E01586F0A30586A3E01586F0A3053B
:0E2C4A0086A3E01586F09014054BE0A3FAE097
:0E2C5800A3FBE0A3FCE0FD20E70402492CB53D
:0E2C66009014054FE0A3FAE0A3FBE0A3FCE00E
:042C7400FD30E73D0B
:0E2C78009014054FE0A3FAE0A3FBE0A3FCE0FC
:0E2C8600FD9014054BE0A3FEE0A3FFE0A3F8D1
:0E2C9400E0F9C3EA9EEB9FEC98ED648089F0B6
:072CA20063F08095F050077C
:072CA90075820102492CEDC8
:052CB000758200803870
:0E2CB5009014054BE0A3FAE0A3FBE0A3FCE0C3
:0E2CC300FD9014054FE0A3FEE0A3FFE0A3F890
:0E2CD100E0F9C3EA9EEB9FEC98ED648089F079
:072CDF0063F08095F0500442
:042CE60075820122D0
:032CEA00758200F0
:012CED0022C4
:0E2CEE00AA83AB828BF090140553E0A4F8A9E2
:0E2CFC00F08AF0E0A429F98BF0A3E0A429F5FA
:042D0A008388822216
:012D0E0022A2
:0E2D0F00AA82AB83AC93ADF090140559EAF0A4
:0E2D1D00A3EBF0A3ECF0A3EDF09014055D75B0
:0E2D2B00860190140555E01586F0A30586A3D9
:0E2D3900E01586F0A30586A3E01586F0A3053D
:0E2D470086A3E01586F090140559E0A3FAE08B
:0E2D5500A3FBE0A3FCE0FD8C02EDA2E7CA3375
:0E2D6300CA33CA5401FB7C007D007B007C005B
:0C2D71007D0090140571EAF0A3EBF090D7
:0E2D7D0014055DE0A3FAE0A3FBE0A3FCE0FD7B
:0E2D8B008C02EDA2E7CA33CA33CA5401FB7CA6
:0E2D9900007D007B007C007D0090140571E041
:0E2DA700FEA3E0FFE03395E0F8F9C3EE9AFAE0
:0E2DB500EF9BFBE89CFCE99DFD90140571EA84
:0E2DC300F0A3EBF090140571E0247EF0A3E085
:0E2DD1003400F090140559E0A3FAE0A3FBE0F3
:0E2DDF00A3FCE0FD235401FA9014055DE0A36F
:0E2DED00FBE0A3FCE0A3FDE0FE235401FB622B
:0E2DFB00029014055DE0A3FBE0A3FCE0A3FD45
:082E0900E0FEEB4C4D4E700E93
:0E2E11009000000075938075F0BF0249318675
:0E2E1F0090140559E0A3FBE0A3FCE0A3FDE046
:072E2D00FEEB4C4D4E700B53
:0B2E34009000000075F000024931869C
:0E2E3F0090140559E0A3FBE0A3FCE0A3FDE026
:0E2E4D00FE53057F7E0090140569EBF0A3ECA8
:0E2E5B00F0ED4480A3F0A3EEF09014055DE0CE
:0E2E6900A3FBE0A3FCE0A3FDE0FE53057F7E8B
:0E2E7700009014056DEBF0A3ECF0ED4480A389
:0C2E8500F0A3EEF09014056D758601902E
:0E2E91001405691586C3758601E0758600C5B7
:0E2E9F00F0E0C5F095F0758601A3E0758600A1
:0E2EAD00C5F0A3E0C5F095F0758601A3E075B1
:0E2EBB008600C5F0A3E0C5F095F0758601A372
:0E2EC900E07586006480C5F0A3E0C5F063F0FC
:092ED7008095F0400402492F2906
:0E2EE00075F00290140569E0FBA3E0FCA3E08E
:062EEE00FDA3E0FE800DD3
:0D2EF400EB25E0FBEC33FCED33FDEE33FE8F
:0E2F0100D5F0F090140569EBF0A3ECF0A3ED11
:0E2F0F00F0A3EEF090140571E024FFFBA3E0A8
:0C2F1D0034FFFC90140571EBF0A3ECF005
:0E2F290090140565E4F0A3F0A3E4F0A3740196
:0D2F3700F090140561E4F0A3F0A3F0A3F006
:0E2F440090140565E0F5F0A3E042F0A3E04232
:0D2F5200F0A3E042F0E5F070040249309C6D
:0E2F5F009014056D758601901405691586C3E2
:0E2F6D00758601E0758600C5F0E0C5F095F0B0
:0E2F7B00758601A3E0758600C5F0A3E0C5F0E1
:0E2F890095F0758601A3E0758600C5F0A3E003
:0E2F9700C5F095F0758601A3E0758600648094
:0E2FA500C5F0A3E0C5F063F08095F050040283
:032FB3004930376B
:0E2FB60090140561E0FBA3E0FCA3E0FDA3E0A6
:0E2FC400FE90140565E04203A3E04204A3E082
:0E2FD2004205A3E0420690140561EBF0A3EC6B
:0E2FE000F0A3EDF0A3EEF09014056D758601E0
:0E2FEE00901405691586C3E0F5F00586E095A0
:0E2FFC00F0FB1586A3E0F5F00586A3E095F046
:0E300A00FC1586A3E0F5F00586A3E095F0FD29
:0E3018001586A3E0F5F00586A3E095F0FE75A1
:0E302600860090140569EBF0A3ECF0A3EDF02A
:03303400A3EEF018
:0E30370075F00290140569E0FBA3E0FCA3E035
:06304500FDA3E0FE800D7A
:0D304B00EB25E0FBEC33FCED33FDEE33FE36
:0E305800D5F0F090140569EBF0A3ECF0A3EDB9
:0E306600F0A3EEF090140565A3A3A3E0C3133E
:0E307400FE124938EEE013FD124938EEE0136B
:0E308200FC124938EEE013FB90140565F0A334
:0C309000ECF0A3EDF0A3EEF002492F4499
:0E309C0090140561E02401F0A3E03400F0A3DD
:0E30AA00E03400F0A3E03400F090140571E073
:0E30B8002401F0A3E03400F090140561A3A3FE
:0E30C600A3E0A2E713FE124938EEE013FD125C
:0E30D4004938EEE013FC124938EEE013FB9091
:0E30E200140561F0A3ECF0A3EDF0A3EEF09066
:0E30F000140561E0F0A3E0F0A3E0547FF0A32C
:0530FE00E0F0EA600AA9
:0A3103007A007B007C007D808008CC
:08310D007A007B007C007D00CC
:0E31150090140571E0FEA3E0FFE03395E0F8B2
:06312300F975F018800DA3
:0D312900EE25E0FEEF33FFE833F8E933F95F
:0E313600D5F0F0EE4202EF4203E84204E94217
:0E3144000590140561E0FEA3E0FFA3E0F8A3F0
:0E315200E0F9EE4202EF4203E84204E94205D2
:0E31600090140559EAF0A3EBF0A3ECF0A3EDF8
:0E316E00F090140559E0A3FAE0A3FBE0A3FCE7
:0A317C00E0FD8A828B838C938DF0B6
:013186002226
:0E31870075860190140577E582F0A3E583F0CC
:0C319500A3E593F0A3E5F0F07586009030
:0E31A100140577E0FA90140575E0FB8BF0EA58
:0E31AF00A4FBACF09014057DEBF0A3ECF090C7
:0D31BD00140573E0FB8BF0EAA4FCADF0906C
:0E31CA0014057BECF0A3EDF09014057EE0FC04
:0E31D8009014057AE0FD8BF0EDA4FDAEF07FC3
:0E31E60000ED2CFDEE3FFE9014057EEDF09006
:0C31F40014057EE0FC90140579E0FD90CD
:0E320000140574E0FE8EF0EDA4FDAFF07E002C
:0D320E00ED2CFDEF3EFF9014057EEDF090DD
:0E321B0014057DE0A3FCE0FD90140579E0FEB3
:0D3229008BF0EEA4FEAFF02CFCEF3DFD900D
:0E32360014057DECF0A3EDF09014057DE0A3EF
:0E324400FCE0FD90140578E0FE90140574E0A7
:0E325200FF8FF0EEA4FFAEF02CFCEE3DFD90E1
:0E32600014057DECF0A3EDF090140578E0FC71
:0E326E0090140575E0FD8DF0ECA4FCAEF09020
:0E327C0014057AECF090140578E0FC8BF0EC71
:0E328A00A4FBADF090140578EBF0A3EDF090EE
:0D329800140576E0FB8BF0EAA4FBACF0908F
:0E32A500140576EBF090140574E0FB8BF0EA54
:0E32B300A4FAACF090140574EAF0A3ECF090CD
:0B32C100140573E4F090140577F09002
:0E32CC0014057BE0A3FAE0A3FBE0A3FCE0FD09
:0E32DA0090140577E0FEA3E0FFA3E0F8A3E068
:0E32E800F9EE2AFAEF3BFBE83CFCE93DFD90D5
:0E32F60014057BEAF0A3EBF0A3ECF0A3EDF0DF
:0E33040090140573E0FEA3E0FFA3E0F8A3E041
:0E331200F9EE2AFAEF3BFBE83CFCE93DFD8AB0
:07332000828B838C938DF07A
:013327002283
:0E332800AA82AB83AC93ADF090140597E4F04D
:0E333600A3F0A3F0A3F09014058BEAF0A3EB34
:0E334400F0A3ECF0A3EDF09014058F75860158
:0E3352009014057FE01586F0A30586A3E01514
:0E33600086F0A30586A3E01586F0A30586A3DC
:0E336E00E01586F09014058BE0A3FAE0A3FBB7
:0B337C00E0A3FCE0FDEA4B4C4D701B91
:0E3387009014058FE0A3FAE0A3FBE0A3FCE0A6
:0D339500FD8A828B838C938DF0024938ED08
:0E33A2009014058FE0A3FAE0A3FBE0A3FCE08B
:0733B000FDEA4B4C4D701BC0
:0E33B7009014058BE0A3FAE0A3FBE0A3FCE07A
:0D33C500FD8A828B838C938DF0024938EDD8
:0E33D2009014058BE0A3FAE0A3FBE0A3FCE05F
:0E33E000FD8C02EDA2E7CA33CA33CA5401FBCA
:0E33EE007C007D007B007C007D009014059328
:0E33FC00EAF0A3EBF09014058FE0A3FAE0A333
:0E340A00FBE0A3FCE0FD8C02EDA2E7CA33CA92
:0E34180033CA5401FB7C007D007B007C007DEC
:0E3426000090140595EAF0A3EBF090140595C4
:0E343400E02419FAA3E03400FB90140593C3C2
:0E344200EAC5F0E0C5F095F0EB6480C5F0A39C
:0A345000E0C5F063F08095F0501B1A
:0E345A009014058BE0A3FAE0A3FBE0A3FCE0D6
:0D346800FD8A828B838C938DF0024938ED34
:0E34750090140593E02419FAA3E03400FB90B4
:0E348300140595C3EAC5F0E0C5F095F0EB64C2
:0E34910080C5F0A3E0C5F063F08095F0501BFD
:0E349F009014058FE0A3FAE0A3FBE0A3FCE08D
:0D34AD00FD8A828B838C938DF0024938EDEF
:0E34BA009014058BE0A3FAE0A3FBE0A3FCE076
:0E34C800FD53047F7D0090140583EAF0A3EB12
:0E34D600F0EC4480A3F0A3EDF09014058FE01D
:0E34E400A3FAE0A3FBE0A3FCE0FD53047F7D10
:0E34F2000090140587EAF0A3EBF0EC4480A3F1
:0E350000F0A3EDF09014058BE0A3FAE0A3FB1E
:0B350E00E0A3FCE0FD235401FA60394B
:0E35190090140583758601901405831586E0D5
:0E352700D3F434000586F01586A3E0F43400DA
:0E3535000586A3F01586A3E0F434000586A3F6
:0E354300F01586A3E0F434000586A3F075862B
:013551000079
:0E3552009014058FE0A3FAE0A3FBE0A3FCE0D9
:07356000FD235401FA60395C
:0E35670090140587758601901405871586E07F
:0E357500D3F434000586F01586A3E0F434008C
:0E3583000586A3F01586A3E0F434000586A3A8
:0E359100F01586A3E0F434000586A3F07586DD
:01359F00002B
:0E35A00090140595758601901405931586C349
:0E35AE00E0758601C5F0E0758600C5F095F069
:0E35BC00A3E06480758601C5F0A3E07586006B
:0D35CA00C5F063F08095F040040249363BE7
:0E35D70090140595758601901405931586C312
:0E35E500E0F5F00586E095F0FA1586A3E0F516
:0E35F300F00586A3E095F0FB7586008AF005D2
:0E360100F090140587E0FAA3E0FBA3E0FCA321
:08360F00E0FDE03392D2800ED1
:0E361700A2D2ED13FDEC13FCEB13FBEA13FA49
:0E362500D5F0EF90140587EAF0A3EBF0A3ECCC
:08363300F0A3EDF0024936AFEF
:0E363B0090140593758601901405951586C3AD
:0E364900E0F5F00586E095F0FA1586A3E0F5B1
:0E365700F00586A3E095F0FB7586008AF0056D
:0E366500F090140583E0FAA3E0FBA3E0FCA3C1
:08367300E0FDE03392D2800E6D
:0E367B00A2D2ED13FDEC13FCEB13FBEA13FAE5
:0E368900D5F0EF90140583EAF0A3EBF0A3EC6C
:0C369700F0A3EDF09014059575862190CD
:0C36A300140593E0F0A3A3E0F07586008E
:0E36AF0090140587758601901405831586E03A
:0E36BD00C59C0586E0C59C259CFA1586A3E0F9
:0E36CB00C59C0586A3E0C59C359CFB1586A317
:0E36D900E0C59C0586A3E0C59C359CFC1586CB
:0E36E700A3E0C59C0586A3E0C59C359CFD753F
:0E36F500860090140583EAF0A3EBF0A3ECF03E
:0E370300A3EDF090140583A3A3A3E020E70438
:043711000249375FD3
:0E37150090140583758601901405831586E0D7
:0E372300D3F434000586F01586A3E0F43400DC
:0E3731000586A3F01586A3E0F434000586A3F8
:0E373F00F01586A3E0F434000586A3F075862D
:0E374D000090140597E4F0A3F0A3E4F0A37439
:04375B0080F0802258
:0E375F0090140583E0F5F0A3E042F0A3E042F1
:09376D00F0A3E042F0E5F0700B5E
:0B3776009000000075F000024938EDE3
:0E37810090140583E0FAA3E0FBA3E0FCA3E0B4
:0E378F00FDC3EA9400EB9400EC9480ED9400EE
:06379D004004024937F070
:0E37A30075F00290140583E0FAA3E0FBA3E0AA
:0637B100FCA3E0FD800D09
:0D37B700EA25E0FAEB33FBEC33FCED33FDCB
:0E37C400D5F0F090140583EAF0A3EBF0A3EC2F
:0E37D200F0A3EDF090140593E024FFFAA3E0BD
:0D37E00034FFFB90140593EAF0A3EBF00218
:0337ED00493781D8
:0E37F00090140583E0FAA3E0FBA3E0FCA3E045
:0737FE00FD7004024938646C
:0838050090140583E030E01788
:0E380D0090140583E02402F0A3E03400F0A341
:09381B00E03400F0A3E03400F0F9
:0D38240090140583A3A3A3E0A2E713FD12F7
:0E3831004938EEE013FC124938EEE013FB12AA
:0E383F004938EEE013FA90140583F0A3EBF085
:0E384D00A3ECF0A3EDF090140593E02401F03D
:09385B00A3E03400F0024937F04B
:0E38640090140583E0F0A3E0F0A3E0547FF0A1
:0E387200A3E0F090140593E0FAA3E0FBE0332E
:0938800095E0FCFD75F018800DC7
:0D388900EA25E0FAEB33FBEC33FCED33FDF8
:0E389600D5F0F090140597E04202A3E0420343
:0E38A400A3E04204A3E0420590140583E0FE79
:0E38B200A3E0FFA3E0F8A3E0F9EE4202EF422C
:0E38C00003E84204E942059014058BEAF0A3E8
:0E38CE00EBF0A3ECF0A3EDF09014058BE0A35B
:0E38DC00FAE0A3FBE0A3FCE0FD8A828B838C64
:0338EA00938DF0CB
:0138ED0022B8
:0738EE004386C0A353863F8F
:0138F50022B0
:0538F600AA82BA610086
:0238FB00400A81
:0638FD00C3747A9A400436
:0439030075820122A6
:03390700758200C6
:01390A00229A
:0D390B00AA82AB83AC93ADF0E4F584F585A2
:0E3918008A828B838C938DF012491E02F8A3D5
:0B392600AA82AB83AC93ADF0E860090F
:09393100758601A375860080DE95
:06393A008584828585836F
:013940002264
:00000001FF
