:020000040049B1
:0B000000800554494E490002493519A3
:0C35190012490197E58260040249000B92
:0735250074054400602774E7
:05352C00562405F974AE
:05353100353400FA90A2
:0E35360049355675862190140562E493F0A382
:0E354400A3E582B501F6E583B502F1758600B8
:043552000249000B1F
:06000B001249001180FE05
:09001100742EC0E07401C0E0741B
:0C001A0049C0E07402C0E012490855D053
:0E002600E0D0E0D0E0D0E0901404017401F0CE
:0C00340075826E124904927444C0E0749E
:0A00400001C0E07449C0E07402C082
:0E004A00E012490855D0E0D0E0D0E0D0E0123E
:080058004903587458C0E0741C
:0A00600001C0E07449C0E07402C062
:0E006A00E012490855D0E0D0E0D0E0D0E07AB6
:03007800007B000A
:0C007B00C3EA9464EB64809480400402AB
:0300870049010725
:0C008A00C002C003C002C0037474C0E0D8
:0A0096007401C0E07449C0E0740278
:0E00A000C0E012490855D0E0D0E0D0E0D0E03A
:0E00AE00D0E0D0E0D003D00290140407740A12
:0D00BC00F0E4A3F0C002C0038A828B83121F
:0E00C90049065CD003D002E582B40929E58324
:0300D700B400244E
:0A00DA00C002C003747AC0E0740194
:0B00E400C0E07449C0E07402C0E012EC
:0E00EF00490855D0E0D0E0D0E0D0E0D003D0FA
:0100FD000200
:0500FE000ABA00010B2D
:040103000249007B32
:0901070012490358747DC0E07434
:0A01100001C0E07449C0E07402C0B1
:0E011A00E012490855D0E0D0E0D0E0D0E0126D
:0301280049035830
:02012B0080FE54
:01012D0022AF
:0E012E0068656C6C6F204C474D2056302E32A9
:08013C002E352121210D0A00DE
:0E014400616674657220696E69745F726F6D1A
:060152002121210D0A002D
:0E0158002020202020202020202020202020D9
:0E016600202020202020676F2121210D0A007B
:060174002530326420007A
:03017A000D0A006B
:0E017D002020202020202020202020202020B4
:0C018B00202020202020656E640A0D005A
:0E01970075A80075D000D002D001D000759B75
:0E01A50000758100C000C001C002901404006B
:0E01B300E4F09000000175F000124901C775DC
:0501C100A8807582001A
:0101C6002216
:0E01C700C2AC75985A75CBFF75CAFC75C8306E
:0C01D500D2CA90140400E0FA8A226017DD
:0C01E100901404027423F09049021C12D8
:0B01ED004905B7C299C298D2AC80044B
:0401F800C298D2993E
:0101FC0022E0
:0C01FD0053A87F752201901404027423A3
:0E020900F09049021C124905B7C299C298D262
:04021700AC43A880CC
:01021B0022C0
:0E021C00C0E0C0F0C082C083C093C08675866B
:0E022A0000C084C085C095C09CC002C003C047
:0D02380004C0D075D000209804024902BB1C
:0C02450090140562E02400F584A3E0346E
:0A02510000F585E43414F595E599F5
:0E025B000586F075860090140562E02401FA15
:0E026900A3E03400FB90140562EAF0EB5403AE
:0E027700A3F09014056475860190140562E0F2
:0E028500758600F5F0E0B5F011758601A3E076
:0C029300758600F5F0A3E0B5F0028002D3
:02029F008018C5
:0E02A10090140564E02401FAA3E03400FB9001
:0A02AF00140564EAF0EB5403A3F019
:0202B900C298E9
:0502BB0010990280060D
:0602C00090140566E4F055
:0E02C600D0D0D004D003D002D09CD095D085EB
:0E02D400D084D086D093D083D082D0F0D0E0FA
:0102E20032E9
:0402E300E52260456B
:0E02E7009014056475860190140562E075861A
:0E02F50000F5F0E0B5F011758601A3E0758606
:0A03030000F5F0A3E0B5F00280273A
:0C030D0090140564E02400F584A3E034A3
:0A03190000F585E43414F59505861F
:09032300E0FA7586008A82800B65
:03032C0030980501
:05032F00AA998A822258
:03033400758200CF
:0103370022A3
:06033800AA82E52260121A
:07033E0090140566E070F960
:0B034500901405667401F08A9980078F
:0503500010990280FB82
:020355008A9983
:010357002283
:08035800E5227004024903BF15
:0E0360009014056475860190140562E07586A0
:0E036E0000F5F0E0B5F011758601A3E075868C
:0A037C0000F5F0A3E0B5F00280DA0E
:0C03860090140564E02400F584A3E0342A
:0A03920000F585E43414F5950586A6
:0E039C00E0FA758600C2AC90140564E02401FE
:0E03AA00FBA3E03400FC90140564EBF0EC546F
:0703B80003A3F0D2AC8007A3
:0303BF003098FD76
:0403C200AA99C2989A
:0203C6008A8229
:0103C8002212
:0E03C90053B0FD9000000275F00012490402CE
:0303D70043B0022E
:0103DA002200
:0E03DB00C2AC90140564E4F0A3F09014056227
:0A03E900E4F0A3F0C298E5226006DC
:0603F300C299D2AC8002A9
:0203F900D29997
:0103FB0022DF
:0103FC0022DE
:0403FD001249082772
:0104010022D8
:0E040200AA82AB83AC93ADF0C002C003C0046D
:0E041000C00512490827AE82AF83A893A9F059
:0E041E00D005D004D003D002EA2EFAEB3FFB4B
:06042C00EC38FCED39FD87
:0E043200C002C003C004C00512490827AE82F4
:0E044000AF83A893A9F0D005D004D003D0025A
:0B044E00C3EE9AEF9BE89CE99D40D9AB
:010459002280
:05045A00901405622270
:05045F009000000522E1
:0E0464001249045AAA82AB83AC93C002C003B3
:0E047200C0041249045FAD82AE83D004D003F3
:0E048000D002ED2AFAEE3BFBE43CFC8A828BB4
:03048E00838C93C9
:010491002248
:0A049200AA8290140401E0B40110E6
:06049C0075C48275C492D4
:0504A200E59130E3FBD1
:0504A70075C41280196C
:0804AC0090140401E0B40211F8
:0904B40075C48275C48A75C49AEE
:0504BD00E59130E3FBB6
:0304C20075C41AE4
:0E04C500C00212490464AB82AC83AD93D00236
:0E04D3009014040B74FFF0A3F0A3740FF0C09C
:0E04E10002C003C004C0058B828C838D931271
:0E04EF0049080AAE82D005D004D003D002EA3C
:0604FD007004024905A491
:03050300EE603275
:0C0506008E027F00C006C002C0077420F7
:0A051200C0E07406C0E07449C0E0C8
:0E051C007402C0E012490855D0E0D0E0D0E0F3
:0E052A00D0E0D0E0D0E0D0068E82024905B6C7
:0E0538008B028C068D077800C374FF9AFA744C
:0E054600FF9EFE740F9FFFE498F88E02EFC335
:0E05540013CA13CAC313CA13CAFEE803035422
:0E056200C04EFEE80303543FFF78007901C04D
:0E05700002C006C007C000C003C004C005C022
:0A057E0001743CC0E07406C0E07494
:0C05880049C0E07402C0E012490855C3ED
:0E059400E581940CF581E59B540344DC940052
:0205A200F59BC7
:0E05A4009000FB331249084E124901FD53A18D
:0405B200FB75820053
:0105B6002222
:0E05B700AA82AB83AC9390140402E0FD7E0098
:0E05C5007F008D848E858F9590140403EAF0DC
:0E05D300A3EBF0A3ECF0A3E4F074020586F0B5
:0E05E100A375860090140403A3A3E0F9A3E021
:0E05EF00FA7B007C00E90586F0A3758600907B
:0E05FD00140403A3E0FAA3E0FBA3E0FC7800E3
:0E060B00EA0586F0A375860090140403E0FA59
:060619000586F075860065
:01061F0022B8
:0E0620006572726F723A20726F6D5F696E695B
:0E062E00742072657475726E732025640A0064
:0E063C0048656170207374617274732061747C
:0E064A002025702C206C656E67746820256C6E
:04065800754B0A00D4
:02355600000073
:02355800000071
:01355A000070
:08065C00E58333E433FC600B7D
:0B066400C3E49582FDE49583FE800452
:04066F00AD82AE8327
:0E0673008D848E8590140407A3E033E433FDDC
:02068100601205
:0E06830090140407E0D3F43400FEA3E0F43436
:0406910000FF8009DD
:0906950090140407E0FEA3E0FF4D
:0E069E0090140409EEF0A3EFF0C004C005852F
:0E06AC008482858583124906D1AA82AB83D051
:0B06BA0005D0048A828B83EC6D600B7E
:0B06C500C3E49582F582E49583F58381
:0106D0002207
:0A06D1008582848583857C007D000E
:0D06DB0090140409A3E0235401FE60040202
:0306E80049073C83
:0E06EB0090140409E0FEA3E0CE25E0CE33FF1C
:0E06F90090140409EEF0A3EFF090140409C36E
:0E070700E584C5F0E0C5F095F0E585C5F0A3EA
:07071500E0C5F095F050195A
:0E071C0090140409E0FEA3E0C313CE13CEFF39
:0B072A0090140409EEF0A3EFF080072C
:070735000D8D04024906DBF3
:0E073C0090140409C3E584C5F0E0C5F095F003
:0C074A00E585C5F0A3E0C5F095F0401A6D
:0E07560090140409C3E0F5F0E58495F0FDA3CE
:0C076400E0F5F0E58595F0FE8D848E85B3
:0E07700090140409E0FDA3E0C313CD13CDFEE9
:0E077E0090140409EDF0A3EEF08C051CED6064
:05078C00040249073CD6
:060791008584828585834A
:01079700223F
:0E079800C093C083C08290FF0002C0E0C0F09A
:0E07A600A3E493C0E0A3E493251EF582D0E007
:0E07B400351FF583A3E493F5F0A3E493F51B42
:0E07C20085F01C85931DD0F0D0E0D082D0834E
:0907D000D093C01BC01CC01D2207
:0E07D900C093C083C082C0E07400251EF5826C
:0E07E7007401351FF583759300E0F51DA3E046
:0E07F500F51CA3E0F51BD0E0D082D083D0939A
:07080300C01BC01CC01D2238
:0E080A00AA93A983A8829014040BAD93AC832B
:0E081800AB82751ECF751F0012490798F5823E
:0108260022AF
:0E082700751E18751F00124907D98882898333
:050835008A938BF02204
:0D083A00751E1B751F00124907D9F582229B
:06084700856B82856C83C5
:01084D002288
:06084E0085826B85836CBE
:010854002281
:06085500C028C0298581C6
:05085B0028859B2953D4
:0608600029034329DCE539
:0A0866002824F8F5F0E52934FFAA74
:0E087000F0FB7CFF7D01901404B8EAF0A3EBCE
:0C087E00F0A3ECF0A3EDF0E528C3940813
:0C088A00F5F0E52994007595FFF58585D3
:0E089600F0840586E0F582A3E0F583A3E0F58B
:0E08A40093A3E0F5F075860012491A56AA8259
:0608B200AB838A828B83F8
:0708B80085288185299BD0F2
:0408BF0029D02822F2
:0608C300C028C029858158
:0508C90028859B295366
:0608CE0029034329DCE5CB
:0A08D4002824F4F5F0E52934FFAA0A
:0C08DE00F0FB7CFF7D01E528C3940CF5C5
:0C08EA00F0E52994007593FFF58385F07C
:0D08F60082E0FEA3E0FFA3E0F8A3E0F9908C
:0E0903001404B0EEF0A3EFF0A3E8F0A3E9F0C7
:0E091100901404B4EAF0A3EBF0A3ECF0A3ED15
:0A091F00F0E528C39408F5F0E5297F
:0E09290094007595FFF58585F0840586E0F550
:0E09370082A3E0F583A3E0F593A3E0F5F0754D
:0E0945008600124911F5AA82AB838A828B8349
:0709530085288185299BD056
:04095A0029D0282256
:05095E00AA8230003107
:0E0963009014040EE0FBA3E0FCA3E0FDA3E073
:0E097100FE8B828C838D938EF0EA1249270E46
:0E097F009014040E74012BF0E43CA3F0E43D50
:07098D00A3F0A3EEF08006C9
:060994008A8212490338BB
:0E099A0090140413E0FAA3E0FB90140413740D
:0709A800012AF0E43BA3F07B
:0109AF002225
:0C09B000AA82C374099AE433FBB401006E
:0509BC00E433FB6006BE
:0609C10074302AFB800FD8
:0309C700300106F6
:0609CA0074572AFC8004B2
:0409D00074372AFC52
:0209D4008C0392
:0609D6008B821249095E4C
:0109DC0022F8
:0C09DD00AA82EAC4540FFBC0028B8212F5
:0E09E9004909B0D00253020F8A82124909B0A8
:0109F70022DD
:0209F8007A2063
:0609FA00EAB40002804493
:070A0000C3E52333F523E5F4
:050A07002433F524E595
:050A0C002533F525E58E
:050A11002633F526E587
:050A16002733F52790D5
:0C0A1B00140412C3E527C5F0E0C5F095F7
:030A2700F0401587
:0C0A2A0090140412C3E0F5F0E52795F0ED
:080A3600F527AB2374012BF539
:010A3E002394
:050A3F001A024909FA4A
:010A4400228F
:0E0A45007586019014041BE582F0A3E583F092
:0C0A5300A3E593F0A3E5F0F07586009099
:0E0A5F0014041FE4F07F009014050EE4F0A3D1
:0E0A6D00F0A3E4F0A3F005869014041BE0F55E
:0E0A7B0082A3E0F583A3E0F593A3E0F5F07508
:0A0A8900860012492780E5826035DF
:0E0A93009014041F7401F09014041B7586016A
:0E0AA1009014041B1586E00586F01586A3E070
:0E0AAF000586A3F01586A3E00586A3F0158644
:0B0ABD00A3E0B2E70586A3F0758600F9
:0E0AC8009014050174FFF0A3F0A3747FF0A357
:0E0AD600744BF005869014041BE0F582A3E03B
:0E0AE400F583A3E0F593A3E0F5F0758600120C
:0B0AF200492632E582700402490CDE48
:020AFD007E0079
:0E0AFF009014050EE4F0A3F0A37420F0A3748D
:0E0B0D0041F0C00605869014041BE0F582A39B
:0E0B1B00E0F583A3E0F593A3E0F5F075860006
:0E0B290012492780D006E582600402490B8342
:0E0B37009014051CE4F0A3F0A37420F0A37446
:0E0B450041F0C00605869014041BE0F582A363
:0E0B5300E0F583A3E0F593A3E0F5F0758600CE
:0E0B6100124928E7AA82AB83AC93ADF0D00610
:0E0B6F009014041BEAF0A3EBF0A3ECF0A3ED4E
:060B7D00F00E02490AFF20
:020B83008E07DB
:0E0B85009014050EE4F0A3F0A37480F0A374A6
:0E0B93003FF0C00705869014041BE0F582A316
:0E0BA100E0F583A3E0F593A3E0F5F075860080
:0E0BAF0012492780A982D0078F06E970040240
:030BBD00490C0CD4
:0E0BC000901404D4E4F0A3F0A37420F0A37406
:0E0BCE0041F0C00705869014041BE0F582A3D9
:0E0BDC00E0F583A3E0F593A3E0F5F075860045
:0E0BEA0012491E6CAA82AB83AC93ADF0D0070B
:0E0BF8009014041BEAF0A3EBF0A3ECF0A3EDC5
:060C0600F01F02490B85FE
:070C0C009014041FE0600DCD
:0D0C1300C00675822D12490338D0068012EC
:070C200090140419E0600BC1
:0B0C2700C00675822B12490338D0066E
:0C0C320090140415E4F090140417F090E6
:0A0C3E00140418F090140419F0904B
:0E0C480014041AE4F0C00605869014041BE0A4
:0E0C5600F582A3E0F583A3E0F593A3E0F5F0AB
:0E0C640075860012490A45D006C006758265E5
:0A0C720012490338D006EE30E70FF8
:0E0C7C00C00675822D12490338D006C3E49ECF
:010C8A00FE6B
:0E0C8B00EE3395E0F8901404BC740AF0E4A374
:0E0C9900F0C006C0008E82888312491AA4D0D3
:0E0CA70000D00674302582F9C006C000898294
:0E0CB50012490338D000D00690140407740AC8
:0E0CC300F0E4A3F08E8288831249065C743040
:0D0CD1002582FE8E8212490338024911F47B
:0E0CDE0005869014041BE0F582A3E0F583A3C5
:0E0CEC00E0F593A3E0F5F0758600124923A809
:0E0CFA00AE82A883A993AAF090140420EEF015
:0C0D0800A3E8F0A3E9F0A3EAF005869050
:0E0D1400140420E0F582A3E0F583A3E0F5933C
:0E0D2200A3E0F5F0758600124924B9AE82A850
:0E0D300083A993AAF0901404BEEEF0A3E8F09D
:0E0D3E00A3E9F0A3EAF005869014041BE0F58B
:0E0D4C0082A3E0F583A3E0F593A3E0F5F07534
:0E0D5A00860012491B19AA82AB83AC93ADF040
:0E0D680090140424EAF0A3EBF0A3ECF0A3ED4A
:030D7600F07E000C
:0E0D79008E0790140420E0F5F0A3E042F0A3F2
:0C0D8700E042F0A3E042F0E5F07004024E
:030D9300490E41C5
:0A0D96008E000EE82428FFE4340468
:0C0DA000F8E43414F9901404CC740AF048
:0E0DAC00E4A3F0A3F0A3F0C006C007C000C08F
:0E0DBA0001058690140420E0F582A3E0F58385
:0C0DC800A3E0F593A3E0F5F0758600129F
:0E0DD400491C89D001D000D007D0067430250C
:0E0DE20082FBE43583FCE43593FDE435F0FA42
:0E0DF0008F8288838993EBF0901404E7740AD5
:0D0DFE00F0E4A3F0A3F0A3F0C0060586907A
:0E0E0B00140420E0F582A3E0F583A3E0F59344
:0E0E1900A3E0F5F07586001249224FAA82ABC5
:0E0E270083AC93ADF0D00690140420EAF0A343
:0C0E3500EBF0A3ECF0A3EDF002490D7906
:030E4100EE70163A
:0B0E440074012EFFEE2428F582E43438
:0A0E4F0004F583E43414F5937430C5
:010E5900F0A8
:080E5A0090140416E0B4FF0738
:070E6200901404167406F061
:0E0E690090140416E0FE8E00700402490FC2C1
:0C0E7700901404ACEFF0901404A8EEF00E
:0E0E8300C007901404D4E4F0A3F0A37420F090
:0E0E9100A37441F0C007058690140424E0F518
:0E0E9F0082A3E0F583A3E0F593A3E0F5F075E0
:0E0EAD00860012491E6CAA82AB83AC93ADF096
:0E0EBB00D00790140424EAF0A3EBF0A3ECF0AF
:0E0EC900A3EDF0058690140424E0F582A3E06A
:0E0ED700F583A3E0F593A3E0F5F07586001215
:0C0EE5004923A8AE82AF83A993AAF09025
:0E0EF100140420EEF0A3EFF0A3E9F0A3EAF062
:0E0EFF00901404ACE0FA901404ACE02401F06E
:0A0F0D00EA2428F584E43404F58595
:0C0F1700E43414F59590140420E024301C
:0E0F2300FDA3E03400FEA3E03400FFA3E034A1
:0E0F310000F9ED0586F0758600C00705869074
:0E0F3F00140420E0F582A3E0F583A3E0F5930F
:0E0F4D00A3E0F5F0758600124924B9AA82AB24
:0E0F5B0083AC93ADF0D007901404BEEAF0A36F
:0D0F6900EBF0A3ECF0A3EDF0C007058690BF
:0E0F7600140424E0F582A3E0F583A3E0F593D4
:0E0F8400A3E0F5F075860012491B19AA82AB96
:0E0F920083AC93ADF0D00790140424EAF0A3D2
:0E0FA000EBF0A3ECF0A3EDF0901404A8E01425
:0E0FAE00F0901404A8E0F8D007901404A8E016
:060FBC00600402490E83EF
:090FC2008F0290140416E0600A8D
:0A0FCB0090140416E02401FB8002DC
:020FD5007B009F
:0A0FD700EB2AFA9014041FE0700EDC
:070FE10090140419E07007F1
:070FE8009014041AE06001FF
:010FEF000AF7
:0B0FF00090140417E06004024910FF99
:0E0FFB0090140415C3E8C5F0E0C5F095F04071
:0510090004024910FF84
:0B100E0090140418E070040249108CDC
:071019009014041FE06011B8
:0E102000C002C00775822D1249095ED007D0AC
:03102E0002802E0F
:0710310090140419E06011A6
:0E103800C002C00775822B1249095ED007D096
:031046000280160F
:071049009014041AE0600F8F
:0E105000C002C0077582201249095ED007D089
:01105E00028F
:06105F0090140415E0FBF3
:0E1065008B041B90140415EBF0C3EA9C4004AE
:0410730002491145D8
:0E107700C002C003C0077582301249095ED066
:0710850007D003D00280D95F
:06108C0090140415E0FBC6
:0E1092008B041B90140415EBF0C3EA9C501560
:0E10A000C002C003C0077582201249095ED04D
:0710AE0007D003D00280DD32
:0710B5009014041FE060131A
:0E10BC00C002C00775822D1249095ED007D010
:0510CA0002024911457E
:0710CF0090140419E0601108
:0E10D600C002C00775822B1249095ED007D0F8
:0310E40002805E29
:0710E7009014041AE06057A9
:0E10EE00C002C0077582201249095ED007D0EB
:0310FC0002804629
:0710FF009014041FE06011D2
:0E110600C002C00775822D1249095ED007D0C5
:0311140002802E28
:0711170090140419E06011BF
:0E111E00C002C00775822B1249095ED007D0AF
:03112C0002801628
:07112F009014041AE0600FA8
:0E113600C002C0077582201249095ED007D0A2
:0111440002A8
:05114500EF14F888031F
:0A114A00EB2428F582E43404F58359
:0C115400E43414F593E0FCC002C003C0BA
:0E116000078C821249095ED007D003D0028BA3
:05116E00041BEC70D72A
:0711730090140416E0604532
:0E117A00C002C00775822E1249095ED007D050
:09118800028F0390140416E0FC30
:061191008C051CED602836
:0A1197008B050BED2428F582E434EB
:0A11A10004F583E43414F593E0FD37
:0E11AB00C002C003C0048D821249095ED00448
:0611B900D003D00280D239
:0711BF0090140417E0602EFC
:0E11C60090140415C3EAC5F0E0C5F095F05092
:0111D4001FFB
:0611D50090140415E0FB7C
:0811DB008B041BC3EA9C5011B8
:0E11E300C002C0037582201249095ED003D0FD
:0311F1000280E792
:0111F40022D8
:0E11F500AA82AB83AC93ADF090140413E4F027
:0E120300A3F09014040EEAF0A3EBF0A3ECF0BD
:08121100A3EDF0EA4B4C700460
:04121900C20080028D
:02121D00D200FD
:0E121F00901404B0E0FAA3E0FBA3E0FCA3E00F
:0D122D00FDEAB4001BEBB40017ECB4001395
:09123A00901404B0749DF0A3743B
:0A1243001AF0A37449F0A37402F03E
:0E124D00901404B0E0FAA3E0FBA3E0FCA3E0E1
:0E125B00FD8A828B838C938DF01249285CFEF5
:0E126900901404B074012AF0E43BA3F0E43CBE
:0E127700A3F0A3EDF08E02EE700402491A23DC
:06128500EAB4250280041A
:04128B0002491A19E1
:05128F00C203C204C20D
:0412940005C206C2C7
:081298000790140412E4F0C2F7
:0412A00008C209C2B5
:0C12A4000A7B007CFF901404B0E0FDA366
:0812B000E0FEA3E0FFA3E0F85B
:0E12B8008D828E838F9388F01249285CF9A3F3
:0E12C600AD82AE83AF93A8F0901404B0EDF0AB
:0E12D400A3EEF0A3EFF0A3E8F08902EAB42540
:0112E2000A01
:0A12E3008A821249095E0249124D89
:0E12ED00C002C003C004C005C006C007C00098
:0E12FB008A8212492393D000D007D006D00576
:0E130900D004D003D002E5827004024913CB59
:06131700ECB4FF028004AB
:04131D000249137DF1
:0E132100C0048B847585009014051A740AF0C0
:0E132F00E4A3F0C002C004C005C006C007C0A1
:0E133D0000858482858583124928C6AB82A96B
:0E134B0083D000D007D006D005D004D002EA2F
:0E13590024D0FA7C00EA2BFAEC39FC8A03EB74
:07136700B4000474018001D1
:01136E00E49A
:08136F00D0047004024912B819
:06137700D204024912B885
:0E137D00C0038C84EC3395E0F5859014051ABE
:0E138B00740AF0E4A3F0C002C003C005C0065F
:0E139900C007C000858482858583124928C65E
:0E13A700AC82A983D000D007D006D005D003B9
:0E13B500D002EA24D0FB7A00EB2CFBEA39FAD6
:0813C3008B04D003024912B8AB
:0413CB00EAB42E064C
:0613CF007C00024912B887
:0E13D500C002C003C004C005C006C007C000AF
:0E13E3008A82124934CED000D007D006D00541
:0C13F100D004D003D002E58224FF92015A
:0313FD00300103B9
:031400005302DFB5
:08140300EAB420040249147947
:06140B00EAB42B0280622E
:06141100EAB42D02805632
:06141700EAB4420280620B
:06141D00EAB443028068FE
:08142300EAB44404024916D1A9
:08142B00EAB44604024916F779
:08143300EAB44904024916D194
:06143B00EAB44C028044FB
:08144100EAB44F04024916DC75
:08144900EAB450040249160A3E
:08145100EAB45304024914D669
:08145900EAB45504024916E54E
:08146100EAB45804024916EE3A
:04146900024916FB23
:06146D00D203024912B88F
:06147300D205024912B887
:06147900D206024912B880
:06147F00D208024912B878
:06148500D209024912B871
:0E148B00901404B4E0FAA3E0FDA3E0FEA3E099
:0E149900FFEA24FEFAED34FFFDEE34FFFE9074
:0E14A7001404B4EAF0A3EDF0A3EEF0A3EFF00E
:0E14B5008A828D838E938FF012492888AA9C1C
:0E14C300FDC003C0048A821249095ED004D025
:0514D1000302491709A8
:0E14D600901404B4E0FAA3E0FDA3E0FEA3E04E
:0E14E400FFEA24FCFAED34FFFDEE34FFFE902B
:0E14F2001404B4EAF0A3EDF0A3EEF0A3EFF0C3
:0E1500008A828D838E938FF012492888AA9CD0
:0C150E00FDA312492888AE9CFF8A238DA3
:04151A00248E258F67
:0C151E0026EAB40018EDB40014EEB4008E
:01152A0010B0
:04152B0075239D7512
:03152F00241A7506
:03153200254975D3
:0615350026027A06801E6A
:0A153B00C003C004852382852483C9
:071545008525938526F012B5
:0D154C004934E3AD82AE83D004D0038D029C
:0315590020032B41
:05155C00C3EA9B5026CC
:06156100C3EB9AFB8B05B1
:0B1567008D061D8D03EEB40002801500
:0E157200C002C004C0057582201249095ED077
:0715800005D004D00280E059
:071587008523828524838582
:06158E0025938526F012F2
:0615940049285CFD603CEB
:07159A00852382852483856F
:0A15A10025938526F074012582FDD4
:0C15AB00E43583FEE43593FFA8F08D23A7
:0515B7008E248F258841
:0C15BC00261249285CFDC002C003C004D8
:0E15C8008D821249095ED004D003D00280B19A
:0715D600200304024917097C
:0915DD00C3EA9B4004024917090E
:0615E600C3EB9AFB8B052C
:0D15EC008D061D8D03EEB4000402491709A1
:0E15F900C004C0057582201249095ED005D0DD
:031607000480E27A
:0E160A00901404B4E0FDA3E0FEA3E0FFA3E013
:0E161800F8ED24FCFDEE34FFFEEF34FFFF90F2
:0E1626001404B4EDF0A3EEF0A3EFF0A3E8F08F
:0E1634008D828E838F9388F012492888AD9C9A
:0C164200FEA312492888AF9CF88D238E6F
:04164E00248F258838
:0816520026C374039526500421
:04165A007D04800289
:02165E00AD26B7
:0E166000ED90491A9793FDC003C0048D8212CD
:0E166E0049095ED004D003C003C00475823A5F
:0E167C001249095ED004D003C003C004758279
:0E168A00301249095ED004D003C003C00475BD
:0E16980082781249095ED004D003C003C0045A
:0C16A600852582124909DDD004D003C064
:0C16B20003C004852482124909DDD00425
:0A16BE00D003C003C004852382128C
:0916C8004909DDD004D00380388B
:0B16D100D20790140412740AF0802D60
:0916DC00901404127408F080243B
:0916E50090140412740AF0801B39
:0916EE00901404127410F0801233
:0416F700D20A800E85
:0E16FB00C003C0048A821249095ED004D003E5
:07170900200A0402491799B0
:0E171000901404B4E0FDA3E0FEA3E0FFA3E00C
:0E171E00F8ED24FCFDEE34FFFEEF34FFFF90EB
:0E172C001404B4EDF0A3EEF0A3EFF0A3E8F088
:0E173A008D828E838F9388F012492888AD9C93
:0C174800FEA312492888AF9CF88D238E68
:04175400248F258831
:081758002690140415EBF0903B
:0B176000140416ECF090140417E4A22F
:09176B000333F090140418E4A209
:091774000433F090140419E4A2FE
:09177D000533F09014041AE4A2F3
:0C1786000633F08D828E838F9388F01262
:07179200490A450249124D0E
:0C17990090140412E0B400040249124D48
:0717A50020080402491802AC
:0E17AC00901404B4E0FCA3E0FDA3E0FEA3E073
:0A17BA00FF1CBCFF051DBDFF011E52
:0E17C400901404B4ECF0A3EDF0A3EEF0A3EF4C
:0E17D200F08C828D838E938FF01249285CFC80
:0A17E0003395E0FDFEFF8C238D24FD
:0517EA008E258F263062
:0617EF000704024918A5E1
:0717F5007524007525007545
:0617FC002600024918A5B9
:0718020020090402491856F9
:0E180900901404B4E0FCA3E0FDA3E0FEA3E015
:0E181700FFEC24FCFCED34FFFDEE34FFFE90F0
:0E1825001404B4ECF0A3EDF0A3EEF0A3EFF08A
:0E1833008C828D838E938FF012492888AC9C96
:0C184100FDA312492888AE9CFF8C238D6B
:04184D00248E258F31
:0518510026024918A564
:0E185600901404B4E0FCA3E0FDA3E0FEA3E0C8
:0E186400FFEC24FEFCED34FFFDEE34FFFE90A1
:0E1872001404B4ECF0A3EDF0A3EEF0A3EFF03D
:0E1880008C828D838E938FF012492888AC9C49
:0A188E00FD3395E0FEFF8C238D244E
:051898008E258F2620C3
:02189D0007063C
:06189F007525007526000E
:0318A500300722E7
:0518A800E52630E71BFE
:0A18AD00C3E49523FCE49524FDE458
:0818B7009525FEE49526FF8C47
:0418BF00238D248EC3
:0518C300258F268002C4
:0218C800C20755
:0418CA00D2027C00CA
:0C18CE00752700C003C004124909F8D0BF
:0A18DA0004D00320020BD0F0E52734
:0718E400C442F0C0F08004D3
:0418EB00E527C0E04D
:0718EF000CB202E5236002C8
:0218F60080D69A
:0418F800E524600281
:0218FC0080D09A
:0418FE00E52560027A
:0219020080CA99
:08190400E52670047401800166
:01190C00E4F6
:06190D00FD8C02ED60BB41
:04191300EBB400022F
:021917007B0152
:0319190020042A7D
:03191C002003277E
:06191F0074012AFC8B0597
:0B192500C3EC9DE433FE8D03EE601662
:0E193000C002C004C0057582201249095ED0B5
:08193E0005D004D0021D80DF7A
:0319460030071453
:0E194900C002C00375822D1249095ED003D082
:0619570002EB14FB8032DC
:06195D00EAB40002802C38
:0319630030051438
:0E196600C002C00375822B1249095ED003D067
:0619740002EB14FB8015DC
:03197A0030061222
:0E197D00C002C0037582201249095ED003D05B
:04198B0002EB14FB5C
:03198F002003250D
:021992008B04C4
:0A1994008C051C8C03C3EA9D50264D
:03199E003004040E
:0419A1007D30800213
:0219A5007D20A3
:0E19A700C002C0048D821249095ED004D00235
:0219B50080DDD3
:0519B700C3EA9B50068D
:0619BC00C3EB9AFB800260
:0219C2007B00A8
:0619C4008A041AEC602603
:0A19CA00B20220020AD0E000C0E0E3
:0519D400C4540F800463
:0419D900D0E0540FF7
:0A19DD00F527C002C003852782121F
:0919E7004909B0D003D00280D4FC
:0719F0002003040249124D1F
:0219F7008B0261
:0619F9008A031AEB6004F2
:0419FF007B018002E6
:021A03007B0066
:071A0500EB70040249124DD1
:0D1A0C00C0027582201249095ED00280E000
:0A1A19008A821249095E0249124D4B
:031A230030001E72
:0E1A26007582001249095E90140413E024FF3B
:0E1A3400F584A3E034FFF585858482858583E3
:021A4200801111
:0E1A440075860190140413E0F582A3E0F5838B
:031A520075860096
:011A5500226E
:0E1A5600AA82AB83AC93ADF0901404B8E0FE0E
:0E1A6400A3E0FFA3E0F8A3E0F9901404B0EAB9
:0E1A7200F0A3EBF0A3ECF0A3EDF0901404B49D
:0C1A8000EEF0A3EFF0A3E8F0A3E9F09073
:0A1A8C0000000075F000124911F58A
:011A9600222D
:061A9700495843502D00E8
:071A9D003C4E554C4C3E008D
:081AA400E58333E433FC600B21
:0B1AAC00C3E49582FDE49583FE8004F6
:041AB700AD82AE83CB
:0E1ABB008D848E85901404BCA3E033E433FDCB
:021AC9006012A9
:0E1ACB00901404BCE0D3F43400FEA3E0F43425
:041AD90000FF800981
:091ADD00901404BCE0FEA3E0FF3C
:0E1AE600901404CAEEF0A3EFF0C004C0058512
:0E1AF400848285858312491C15AA82AB83D09B
:0B1B020005D0048A828B83EC6D600B21
:0B1B0D00C3E49582F582E49583F58324
:011B180022AA
:0E1B1900AA82AB83AC93ADF0901404C2EAF044
:0E1B2700A3EBF0A3ECF0A3EDF0901404C67550
:0E1B35008601901404BEE01586F0A30586A379
:0E1B4300E01586F0A30586A3E01586F0A30545
:0E1B510086A3E01586F0901404C6E0A3FAE027
:0D1B5F00A3FBE0A3FCE0FDEA4B4C4D701B26
:0E1B6C00901404C2E0A3FAE0A3FBE0A3FCE0A7
:0D1B7A00FD8A828B838C938DF002491C1430
:0E1B8700901404C2E0A3FAE0A3FBE0A3FCE08C
:071B9500FDEA4B4C4D701EF0
:0E1B9C00901404C6E0A3FAE0A3FBE0A3FCE073
:0D1BAA00FDB2E7FD8A828B838C938DF002E3
:031BB700491C14B2
:0E1BBA00901404C6E0A3FAE0A3FBE0A3FCE055
:0E1BC800FD630580901404C6EAF0A3EBF0A3C1
:0E1BD600ECF0A3EDF0901404C2E0A3FAE0A33B
:0E1BE400FBE0A3FCE0FD901404C6E0A3FEE0CD
:0E1BF200A3FFE0A3F8E0F990140546EEF0A37F
:0E1C0000EFF0A3E8F0A3E9F08A828B838C93C7
:061C0E008DF012492F00C9
:011C140022AD
:0C1C15008582848583857C007D007E1024
:0C1C2100E58533920BAF84E585CF25E00C
:0E1C2D00CF33F88F8488858C07EDCF25E0CF6C
:091C3B0033F88F048805300B0317
:031C440043040155
:0E1C4700901404CAC3ECC5F0E0C5F095F0EDB2
:0A1C5500C5F0A3E0C5F095F0401BB8
:0E1C5F00901404CAC3E0F5F0EC95F0FFA3E08A
:0D1C6D00F5F0ED95F0F88F04880543840133
:041C7A00DE02800402
:041C7E0002491C21DA
:061C820085848285858344
:011C88002239
:0E1C8900758601901404D0E582F0A3E583F087
:0E1C9700A3E593F0A3E5F0F07586007E007FD4
:011CA500003E
:0E1CA600901404CCA3A3A3E0235401F860041F
:041CB40002491D764E
:0E1CB800C00675F002901404CCE0F8A3E0F929
:081CC600A3E0FEA3E0FA800D8B
:0D1CCE00E825E0F8E933F9EE33FEEA33FAD9
:0E1CDB00D5F0F0901404CCE8F0A3E9F0A3EEED
:0C1CE900F0A3EAF0901404D0758601907E
:0E1CF5001404CC1586C3E0758601C5F0E075B9
:0E1D03008600C5F095F0A3E0758601C5F0A33B
:0E1D1100E0758600C5F095F0A3E0758601C56B
:0E1D1F00F0A3E0758600C5F095F0A3E0758690
:0E1D2D0001C5F0A3E0758600C5F095F0E43323
:041D3B00D00660303E
:0C1D3F00901404CCA3A3A3E0C313FD1276
:0E1D4B004934C6E013FC124934C6E013FB1203
:0E1D59004934C6E013FA901404CCF0A3EBF06A
:081D6700A3ECF0A3EDF08007EE
:071D6F000F8F0602491CA6BC
:021D76008E02DB
:0E1D7800901404CC758601901404D01586C317
:0E1D8600758601E0758600C5F0E0C5F095F0A9
:0E1D9400758601A3E0758600C5F0A3E0C5F0DA
:0E1DA20095F0758601A3E0758600C5F0A3E0FC
:0E1DB000C5F095F0758601A3E0758600C5F0BC
:0C1DBE00A3E0C5F095F0500402491E1A85
:0E1DCA00901404CC758601901404D01586C3C5
:0E1DD800E0F5F00586E095F0FB1586A3E0F53A
:0E1DE600F00586A3E095F0FC1586A3E0F5F06D
:0E1DF4000586A3E095F0FD1586A3E0F5F00549
:0E1E020086A3E095F0FE758600901404D0EBE8
:0A1E1000F0A3ECF0A3EDF0A3EEF058
:0C1E1A00901404CCA3A3A3E0C313FE1299
:0E1E26004934C6E013FD124934C6E013FC1225
:0E1E34004934C6E013FB901404CCF0A3ECF08C
:0D1E4200A3EDF0A3EEF08A031AEB6004029A
:031E4F00491D78B2
:0E1E5200758601901404D0E0F582A3E0F583BC
:0B1E6000A3E0F593A3E0F5F075860009
:011E6B002254
:0E1E6C00AA82AB83AC93ADF0901404D8EAF0D8
:0E1E7A00A3EBF0A3ECF0A3EDF0901404DC75E4
:0E1E88008601901404D4E01586F0A30586A30D
:0E1E9600E01586F0A30586A3E01586F0A305EF
:0E1EA40086A3E01586F0901404D8E0A3FAE0BF
:0D1EB200A3FBE0A3FCE0FDEA4B4C4D6015E6
:0E1EBF00901404DCE0A3FAE0A3FBE0A3FCE037
:071ECD00FDEA4B4C4D700BC8
:0B1ED4009000000075F0000249224E53
:0E1EDF00901404D8E0A3FAE0A3FBE0A3FCE01B
:0E1EED00FD235401FA901404DCE0A3FBE0A3F3
:0E1EFB00FCE0A3FDE0FE235401FB901404E67E
:0E1F0900EA6BF0901404D8E0A3FBE0A3FCE028
:0E1F1700A3FDE0FE8D03EEA2E7CB33CB33CB70
:0E1F25005401FC7D007E007C007D007E00EB00
:0E1F33002482FBEC34FFFCED34FFFDEE34FFA6
:0E1F4100FE901404E4EBF0A3ECF0901404DC2A
:0E1F4F00E0A3FBE0A3FCE0A3FDE0FE8D03EEAB
:0E1F5D00A2E7CB33CB33CB5401FC7D007E00DA
:0E1F6B007C007D007E00901404E4E0FFA3E003
:0E1F7900F8E03395E0F9FAEB2FFBEC38FCEDC5
:0E1F870039FDEE3AFE901404E4EBF0A3ECF00A
:0E1F9500901404D8E0A3FAE0A3FBE0A3FCE064
:0E1FA300FD53047F7D00430480901404D8EAAF
:0E1FB100F0A3EBF0A3ECF0A3EDF0901404DC31
:0E1FBF00E0A3FAE0A3FBE0A3FCE0FD53047FE7
:0E1FCD007D00430480901404DCEAF0A3EBF0E6
:0E1FDB00A3ECF0A3EDF0901404D8E0A3FAE01C
:0E1FE900A3FBE0A3FCE0FD8B028C038D047DC6
:0E1FF70000901404DCE0A3FEE0A3FFE0A3F8DA
:0E200500E0F98F068807890079009014053AEB
:0E201300EEF0A3EFF0A3E8F0A3E9F08A828BD1
:0E202100838C938DF012492D5FAA82AB83ACA5
:0E202F0093ADF0901404E0EAF0A3EBF0A3EC04
:0E203D00F0A3EDF0901404D8E0A3FAE0A3FBAA
:0C204B00E0A3FCE0FD7B007C007D009029
:0E2057001404DCE0A3FEE0A3FFE0A3F8E0F930
:0E2065008F068807890079009014053AEEF086
:0E207300A3EFF0A3E8F0A3E9F08A828B838C40
:0E208100938DF012492D5FAA82AB83AC93AD14
:0E208F00F08B028C038D047D00901404E0E0C1
:0E209D002AF0A3E03BF0A3E03CF0A3E03DF00E
:0E20AB00901404DCE0A3FAE0A3FBE0A3FCE049
:0E20B900FD7B007C007D00901404D8E0A3FEA7
:0E20C700E0A3FFE0A3F8E0F98F068807890088
:0E20D50079009014053AEEF0A3EFF0A3E8F0C6
:0C20E300A3E9F08A828B838C938DF012AD
:0E20EF00492D5FAA82AB83AC93ADF08B028CBF
:0E20FD00038D047D00901404E0E02AF0A3E0BF
:0E210B003BF0A3E03CF0A3E03DF0901404E0B4
:07211900A3A3A3E030E739A6
:0E212000901404E0E02480F0A3E03400F0A36B
:0E212E00E03400F0A3E03400F0901404E0A3CD
:0E213C00E0FAA3E0FBA3E0FC7D00901404E0B9
:0C214A00EAF0A3EBF0A3ECF0A3EDF00230
:032156004921BB61
:0E215900901404E0E02440F0A3E03400F0A372
:0E216700E03400F0A3E03400F0901404E0E057
:0E217500FAA3E0A2E7CA33CA33CA5401FBA39F
:0E218300E025E04BFBE0FCA3E0A2E7CC33CC70
:0E21910033CC5401FD901404E0EAF0A3EBF00F
:0E219F00A3ECF0A3EDF0901404E4E024FFFAAA
:0E21AD00A3E034FFFB901404E4EAF0A3EBF08F
:0E21BB00901404E0E0F0A3E0F0A3E0547FF005
:0A21C900A3E0F0901404E6E0600AC1
:0A21D3007A007B007C007D8080080C
:0821DD007A007B007C007D000C
:0E21E500901404E4E0FEA3E0FFE03395E0F880
:0621F300F975F018800DE3
:0D21F900EE25E0FEEF33FFE833F8E933F99F
:0E220600D5F0F0EE4202EF4203E84204E94256
:0E22140005901404E0E04202A3E04203A3E0C0
:0E2222004204A3E04205901404D8EAF0A3EBB6
:0E223000F0A3ECF0A3EDF0901404D8E0A3FAB4
:0E223E00E0A3FBE0A3FCE0FD8A828B838C937F
:02224C008DF013
:01224E00226D
:0E224F00AA82AB83AC93ADF0901404EBE4F0E4
:08225D00A3F0A3F0A3F07E2022
:0C226500C006ED33920C75F002AF02A829
:0722710003A904AE05800D76
:0D227800EF25E0FFE833F8E933F9EE33FE1F
:0E228500D5F0F08F02880389048E0575F002F3
:0E229300901404EBE0FEA3E0FFA3E0F8A3E04C
:0322A100F9800DB4
:0D22A400EE25E0FEEF33FFE833F8E933F9F3
:0E22B100D5F0F0901404EBEEF0A3EFF0A3E8EC
:0922BF00F0A3E9F0D006300C1187
:0E22C800901404EBE04401F0A3E0F0A3E0F07A
:0322D600A3E0F092
:0E22D900901404E7758601901404EB1586C37B
:0E22E700758601E0758600C5F0E0C5F095F043
:0E22F500758601A3E0758600C5F0A3E0C5F074
:0E23030095F0758601A3E0758600C5F0A3E095
:0E231100C5F095F0758601A3E0758600C5F055
:0C231F00A3E0C5F095F0500402492382B1
:0E232B00C006901404E7758601901404EB15AB
:0E23390086C3E0F5F00586E095F0FF1586A35B
:0E234700E0F5F00586A3E095F0F81586A3E01A
:0E235500F5F00586A3E095F0F91586A3E0F5F6
:0C236300F00586A3E095F0FE7586009062
:0E236F001404EBEFF0A3E8F0A3E9F0A3EEF006
:05237D00430201D0063F
:04238200DE028004F3
:042386000249226581
:08238A008A828B838C938DF095
:012392002228
:05239300AA82BA30002F
:02239800400AF9
:06239A00C374399A4004EF
:0423A000758201221F
:0323A4007582003F
:0123A7002213
:0E23A800AA82AB83AC93ADF0901404EFEAF080
:0E23B600A3EBF0A3ECF0A3EDF0901404EFE025
:0E23C400A3FAE0A3FBE0A3FCE0FDEA4B4C4DC6
:0223D200601594
:0E23D400901404EFE0A3FAE0A3FBE0A3FCE00A
:0723E200FD235401FA600B1A
:0B23E9009000000075F000024924B8CD
:0E23F400901404EFE0A3FAE0A3FBE0A3FCE0EA
:0E240200FD8C02EDA2E7CA33CA33CA5401FBB7
:0E2410007C007D007B007C007D00EA246AFADF
:0D241E00EB34FFFBEC34FFFCED34FFFD90D0
:0E242B001404F3EAF0A3EBF0901404EFE0A326
:0E243900FAE0A3FBE0A3FCE0FD53047F7D006E
:0E244700901404F5EAF0A3EBF0EC4480A3F04F
:0E245500A3EDF0901404F3E0D3F43400FAA3E6
:0E246300E0F43400FB8AF005F0901404F5E07C
:0E247100FAA3E0FBA3E0FCA3E0FDE03392D26F
:02247F00800ECD
:0E248100A2D2ED13FDEC13FCEB13FBEA13FAF1
:0E248F00D5F0EF901404F5EAF0A3EBF0A3EC07
:0E249D00F0A3EDF0901404F5E0FAA3E0FBA329
:0D24AB00E0FCA3E0FD8A828B838C938DF012
:0124B8002201
:0E24B900758601901404F9E582F0A3E583F026
:0C24C700A3E593F0A3E5F0F0758600900B
:0E24D3001404F9E0F5F0A3E042F0A3E042F0BB
:0824E100A3E042F0E5F0700BEE
:0B24E9009000000075F0000249263151
:0424F4007E967F0051
:0A24F800901404F9A3A3A3E06035DB
:0C250200901404F9A3A3A3E0C313FB1280
:0E250E004934C6E013FA124934C6E013F9123C
:0E251C004934C6E013F8901404F9F0A3E9F076
:0D252A00A3EAF0A3EBF00EBE00C40F80C1C9
:042537008E028F037E
:0E253B00901404F9C3E09400A3E09400A3E020
:0E2549009480A3E09400E433FC8A058B06EC3A
:0625570070040249259901
:0E255D0075F002901404F9E0FCA3E0FFA3E087
:06256B00F8A3E0F9800D69
:0D257100EC25E0FCEF33FFE833F8E933F927
:0E257E00D5F0F0901404F9ECF0A3EFF0A3E810
:09258C00F0A3E9F01ABAFF011BEB
:042595000249253B97
:0E259900901404F9E0FCA3E0FFA3E0547FF8E7
:0E25A7007900ECB4FF1FEFB4FF1BE8B47F1700
:0425B500E9B4001372
:0E25B900901404F9E4F0A3F0A3F0A3F0740171
:0525C7002AFDE43BFECB
:0E25CC00901404F9E0F0A3E0F0A3E0547FF0D7
:0E25DA00A3E0F0EE3395E0FAFB75F018800DEB
:0D25E800ED25E0FDEE33FEEA33FAEB33FBA8
:0E25F500D5F0F0901404F9E04205A3E0420690
:0E260300A3E04202A3E04203901404FDEDF0B8
:0E261100A3EEF0A3EAF0A3EBF0901404FDE0BA
:0E261F00A3FAE0A3FBE0A3FCE0FD8A828B831C
:04262D008C938DF00D
:012631002286
:0E263200AA82AB83AC93ADF090140505EAF0DC
:0E264000A3EBF0A3ECF0A3EDF09014050975E8
:0E264E00860190140501E01586F0A30586A311
:0E265C00E01586F0A30586A3E01586F0A30521
:0E266A0086A3E01586F090140505E0A3FAE0C3
:0E267800A3FBE0A3FCE0FD20E704024926D509
:0E26860090140509E0A3FAE0A3FBE0A3FCE03A
:04269400FD30E73DF1
:0E26980090140509E0A3FAE0A3FBE0A3FCE028
:0E26A600FD90140505E0A3FEE0A3FFE0A3F8FD
:0E26B400E0F9C3EE9AEF9BE89CE964808DF09C
:0726C20063F08095F0500762
:0726C9007582010249270D93
:0526D000758200803856
:0E26D50090140505E0A3FAE0A3FBE0A3FCE0EF
:0E26E300FD90140509E0A3FEE0A3FFE0A3F8BC
:0E26F100E0F9C3EE9AEF9BE89CE964808DF05F
:0726FF0063F08095F0500428
:0427060075820122B5
:03270A00758200D5
:01270D0022A9
:0E270E00C0E0E5F0601114601914600714605B
:05271C00181414600414
:04272100D0E080196B
:0B272500D0E0C000A882F6D000800EBB
:05273000D0E0F080097B
:09273500D0E0C000A882F2D0003F
:01273E002278
:0E273F00C0E0E5F0601114601A146020146010
:09274D002114146004D0E080297D
:0C275600D0E0C000A882A69C08F6801A03
:09276200E59CF0A3D0E0F0801426
:04276B00D0E080102A
:0D276F00D0E0C000A882C59CF208C59CF215
:03277C00A3D000E7
:01277F002237
:0E278000AA82AB83AC93ADF090140512EAF080
:0E278E00A3EBF0A3ECF0A3EDF090140516758C
:0E279C0086019014050EE01586F0A30586A3B5
:0E27AA00E01586F0A30586A3E01586F0A305D2
:0E27B80086A3E01586F090140512E0A3FAE067
:0E27C600A3FBE0A3FCE0FD20E704024928236A
:0E27D40090140516E0A3FAE0A3FBE0A3FCE0DE
:0427E200FD30E73DA2
:0E27E60090140516E0A3FAE0A3FBE0A3FCE0CC
:0E27F400FD90140512E0A3FEE0A3FFE0A3F8A1
:0E280200E0F9C3EA9EEB9FEC98ED648089F04C
:0728100063F08095F0500712
:072817007582010249285BF4
:05281E00758200803806
:0E28230090140512E0A3FAE0A3FBE0A3FCE092
:0E283100FD90140516E0A3FEE0A3FFE0A3F85F
:0E283F00E0F9C3EA9EEB9FEC98ED648089F00F
:07284D0063F08095F05004D8
:042854007582012266
:0328580075820086
:01285B00225A
:0E285C00E5F060111460171460171460171473
:07286A0014600474FF8016E6
:09287100C000A882E6D000800D31
:03287A00E0800AF1
:03287D009380073E
:07288000C000A882E2D000B5
:01288700222E
:0E288800E5F0601114601A14601E1460231431
:0728960014600474FF8028A8
:0C289D00C000A882869C08E60582801A14
:0728A900E0F59CA3E080159F
:0828B00093F59CE4A393800D55
:0B28B800C000A882E2F59C08E2058247
:0228C300D00043
:0128C50022F0
:0E28C600AA83AB828BF09014051AE0A4F8A947
:0E28D400F08AF0E0A429F98BF0A3E0A429F526
:0428E2008388822243
:0128E60022CF
:0E28E700AA82AB83AC93ADF090140520EAF00A
:0E28F500A3EBF0A3ECF0A3EDF0901405247516
:0E29030086019014051CE01586F0A30586A33E
:0E291100E01586F0A30586A3E01586F0A30569
:0E291F0086A3E01586F090140520E0A3FAE0F0
:0E292D00A3FBE0A3FCE0FD8C02EDA2E7CA33A1
:0E293B00CA33CA5401FB7C007D007B007C0087
:0C2949007D0090140538EAF0A3EBF0903C
:0E295500140524E0A3FAE0A3FBE0A3FCE0FDE0
:0E2963008C02EDA2E7CA33CA33CA5401FB7CD2
:0E297100007D007B007C007D0090140538E0A6
:0E297F00FEA3E0FFE03395E0F8F9C3EE9AFA0C
:0E298D00EF9BFBE89CFCE99DFD90140538EAE9
:0E299B00F0A3EBF090140538E0247EF0A3E0EA
:0E29A9003400F090140520E0A3FAE0A3FBE058
:0E29B700A3FCE0FD235401FA90140524E0A3D4
:0E29C500FBE0A3FCE0A3FDE0FE235401FB6257
:0E29D3000290140524E0A3FBE0A3FCE0A3FDAA
:0829E100E0FEEB4C4D4E700EC0
:0E29E9009000000075938075F0BF02492D5ECE
:0E29F70090140520E0A3FBE0A3FCE0A3FDE0AC
:072A0500FEEB4C4D4E700B7F
:0B2A0C009000000075F00002492D5EF4
:0E2A170090140520E0A3FBE0A3FCE0A3FDE08B
:0E2A2500FE53057F7E0090140530EBF0A3EC0D
:0E2A3300F0ED4480A3F0A3EEF090140524E033
:0E2A4100A3FBE0A3FCE0A3FDE0FE53057F7EB7
:0E2A4F000090140534EBF0A3ECF0ED4480A3EE
:0C2A5D00F0A3EEF0901405347586019093
:0E2A69001405301586C3758601E0758600C51C
:0E2A7700F0E0C5F095F0758601A3E0758600CD
:0E2A8500C5F0A3E0C5F095F0758601A3E075DD
:0E2A93008600C5F0A3E0C5F095F0758601A39E
:0E2AA100E07586006480C5F0A3E0C5F063F028
:092AAF008095F0400402492B015E
:0E2AB80075F00290140530E0FBA3E0FCA3E0F3
:062AC600FDA3E0FE800DFF
:0D2ACC00EB25E0FBEC33FCED33FDEE33FEBB
:0E2AD900D5F0F090140530EBF0A3ECF0A3ED77
:0E2AE700F0A3EEF090140538E024FFFBA3E00E
:0C2AF50034FFFC90140538EBF0A3ECF06B
:0E2B01009014052CE4F0A3F0A3E4F0A37401FB
:0D2B0F00F090140528E4F0A3F0A3F0A3F06B
:0E2B1C009014052CE0F5F0A3E042F0A3E04297
:0D2B2A00F0A3E042F0E5F0700402492C74C5
:0E2B370090140534758601901405301586C380
:0E2B4500758601E0758600C5F0E0C5F095F0DC
:0E2B5300758601A3E0758600C5F0A3E0C5F00D
:0E2B610095F0758601A3E0758600C5F0A3E02F
:0E2B6F00C5F095F0758601A3E07586006480C0
:0E2B7D00C5F0A3E0C5F063F08095F0500402AF
:032B8B00492C0FC3
:0E2B8E0090140528E0FBA3E0FCA3E0FDA3E00B
:0E2B9C00FE9014052CE04203A3E04204A3E0E7
:0E2BAA004205A3E0420690140528EBF0A3ECD0
:0E2BB800F0A3EDF0A3EEF09014053475860145
:0E2BC600901405301586C3E0F5F00586E09505
:0E2BD400F0FB1586A3E0F5F00586A3E095F072
:0E2BE200FC1586A3E0F5F00586A3E095F0FD56
:0E2BF0001586A3E0F5F00586A3E095F0FE75CE
:0E2BFE00860090140530EBF0A3ECF0A3EDF090
:032C0C00A3EEF044
:0E2C0F0075F00290140530E0FBA3E0FCA3E09A
:062C1D00FDA3E0FE800DA6
:0D2C2300EB25E0FBEC33FCED33FDEE33FE62
:0E2C3000D5F0F090140530EBF0A3ECF0A3ED1E
:0E2C3E00F0A3EEF09014052CA3A3A3E0C313A3
:0E2C4C00FE124934C6E013FD124934C6E013EF
:0E2C5A00FC124934C6E013FB9014052CF0A3C5
:0C2C6800ECF0A3EDF0A3EEF002492B1CF1
:0E2C740090140528E02401F0A3E03400F0A342
:0E2C8200E03400F0A3E03400F090140538E0D8
:0E2C90002401F0A3E03400F090140528A3A363
:0E2C9E00A3E0A2E713FE124934C6E013FD12B4
:0E2CAC004934C6E013FC124934C6E013FB9015
:0E2CBA00140528F0A3ECF0A3EDF0A3EEF090CB
:0E2CC800140528E0F0A3E0F0A3E0547FF0A391
:052CD600E0F0EA600AD5
:0A2CDB007A007B007C007D808008F9
:082CE5007A007B007C007D00F9
:0E2CED0090140538E0FEA3E0FFE03395E0F818
:062CFB00F975F018800DD0
:0D2D0100EE25E0FEEF33FFE833F8E933F98B
:0E2D0E00D5F0F0EE4202EF4203E84204E94243
:0E2D1C000590140528E0FEA3E0FFA3E0F8A355
:0E2D2A00E0F9EE4202EF4203E84204E94205FE
:0E2D380090140520EAF0A3EBF0A3ECF0A3ED5D
:0E2D4600F090140520E0A3FAE0A3FBE0A3FC4C
:0A2D5400E0FD8A828B838C938DF0E2
:012D5E002252
:0E2D5F007586019014053EE582F0A3E583F031
:0C2D6D00A3E593F0A3E5F0F0758600905C
:0E2D790014053EE0FA9014053CE0FB8BF0EAF6
:0E2D8700A4FBACF090140544EBF0A3ECF0902C
:0D2D950014053AE0FB8BF0EAA4FCADF090D1
:0E2DA200140542ECF0A3EDF090140545E0FCA2
:0E2DB00090140541E0FD8BF0EDA4FDAEF07F28
:0E2DBE0000ED2CFDEE3FFE90140545EDF0906B
:0C2DCC00140545E0FC90140540E0FD906B
:0E2DD80014053BE0FE8EF0EDA4FDAFF07E0092
:0D2DE600ED2CFDEF3EFF90140545EDF09043
:0E2DF300140544E0A3FCE0FD90140540E0FE52
:0D2E01008BF0EEA4FEAFF02CFCEF3DFD9039
:0E2E0E00140544ECF0A3EDF090140544E0A38D
:0E2E1C00FCE0FD9014053FE0FE9014053BE045
:0E2E2A00FF8FF0EEA4FFAEF02CFCEE3DFD900D
:0E2E3800140544ECF0A3EDF09014053FE0FC0F
:0E2E46009014053CE0FD8DF0ECA4FCAEF09085
:0E2E5400140541ECF09014053FE0FC8BF0EC0F
:0E2E6200A4FBADF09014053FEBF0A3EDF09053
:0D2E700014053DE0FB8BF0EAA4FBACF090F4
:0E2E7D0014053DEBF09014053BE0FB8BF0EAF2
:0E2E8B00A4FAACF09014053BEAF0A3ECF09032
:0B2E990014053AE4F09014053EF090A0
:0E2EA400140542E0A3FAE0A3FBE0A3FCE0FD6E
:0E2EB2009014053EE0FEA3E0FFA3E0F8A3E0CD
:0E2EC000F9EE2AFAEF3BFBE83CFCE93DFD9001
:0E2ECE00140542EAF0A3EBF0A3ECF0A3EDF044
:0E2EDC009014053AE0FEA3E0FFA3E0F8A3E0A7
:0E2EEA00F9EE2AFAEF3BFBE83CFCE93DFD8ADD
:072EF800828B838C938DF0A7
:012EFF0022B0
:0E2F0000AA82AB83AC93ADF09014055EE4F0B2
:0E2F0E00A3F0A3F0A3F090140552EAF0A3EB99
:0E2F1C00F0A3ECF0A3EDF090140556758601BD
:0E2F2A0090140546E01586F0A30586A3E01579
:0E2F380086F0A30586A3E01586F0A30586A308
:0E2F4600E01586F090140552E0A3FAE0A3FB1C
:0B2F5400E0A3FCE0FDEA4B4C4D701BBD
:0E2F5F0090140556E0A3FAE0A3FBE0A3FCE00B
:0D2F6D00FD8A828B838C938DF0024934C560
:0E2F7A0090140556E0A3FAE0A3FBE0A3FCE0F0
:072F8800FDEA4B4C4D701BEC
:0E2F8F0090140552E0A3FAE0A3FBE0A3FCE0DF
:0D2F9D00FD8A828B838C938DF0024934C530
:0E2FAA0090140552E0A3FAE0A3FBE0A3FCE0C4
:0E2FB800FD8C02EDA2E7CA33CA33CA5401FBF6
:0E2FC6007C007D007B007C007D009014055A8D
:0E2FD400EAF0A3EBF090140556E0A3FAE0A398
:0E2FE200FBE0A3FCE0FD8C02EDA2E7CA33CABF
:0E2FF00033CA5401FB7C007D007B007C007D19
:0E2FFE00009014055CEAF0A3EBF09014055C63
:0E300C00E02419FAA3E03400FB9014055AC327
:0E301A00EAC5F0E0C5F095F0EB6480C5F0A3C8
:0A302800E0C5F063F08095F0501B46
:0E30320090140552E0A3FAE0A3FBE0A3FCE03B
:0D304000FD8A828B838C938DF0024934C58C
:0E304D009014055AE02419FAA3E03400FB9019
:0E305B0014055CC3EAC5F0E0C5F095F0EB6427
:0E30690080C5F0A3E0C5F063F08095F0501B29
:0E30770090140556E0A3FAE0A3FBE0A3FCE0F2
:0D308500FD8A828B838C938DF0024934C547
:0E30920090140552E0A3FAE0A3FBE0A3FCE0DB
:0E30A000FD53047F7D009014054AEAF0A3EB77
:0E30AE00F0EC4480A3F0A3EDF090140556E082
:0E30BC00A3FAE0A3FBE0A3FCE0FD53047F7D3C
:0E30CA00009014054EEAF0A3EBF0EC4480A356
:0E30D800F0A3EDF090140552E0A3FAE0A3FB84
:0B30E600E0A3FCE0FD235401FA603978
:0E30F1009014054A7586019014054A1586E074
:0E30FF00D3F434000586F01586A3E0F4340007
:0E310D000586A3F01586A3E0F434000586A322
:0E311B00F01586A3E0F434000586A3F0758657
:0131290000A5
:0E312A0090140556E0A3FAE0A3FBE0A3FCE03E
:07313800FD235401FA603988
:0E313F009014054E7586019014054E1586E01D
:0E314D00D3F434000586F01586A3E0F43400B8
:0E315B000586A3F01586A3E0F434000586A3D4
:0E316900F01586A3E0F434000586A3F0758609
:013177000057
:0E3178009014055C7586019014055A1586C3E7
:0E318600E0758601C5F0E0758600C5F095F095
:0E319400A3E06480758601C5F0A3E075860097
:0D31A200C5F063F08095F04004024932133F
:0E31AF009014055C7586019014055A1586C3B0
:0E31BD00E0F5F00586E095F0FA1586A3E0F542
:0E31CB00F00586A3E095F0FB7586008AF005FE
:0E31D900F09014054EE0FAA3E0FBA3E0FCA387
:0831E700E0FDE03392D2800EFE
:0E31EF00A2D2ED13FDEC13FCEB13FBEA13FA76
:0E31FD00D5F0EF9014054EEAF0A3EBF0A3EC32
:08320B00F0A3EDF00249328747
:0E3213009014055A7586019014055C1586C34B
:0E322100E0F5F00586E095F0FA1586A3E0F5DD
:0E322F00F00586A3E095F0FB7586008AF00599
:0E323D00F09014054AE0FAA3E0FBA3E0FCA326
:08324B00E0FDE03392D2800E99
:0E325300A2D2ED13FDEC13FCEB13FBEA13FA11
:0E326100D5F0EF9014054AEAF0A3EBF0A3ECD1
:0C326F00F0A3EDF09014055C7586219032
:0C327B0014055AE0F0A3A3E0F0758600F3
:0E3287009014054E7586019014054A1586E0D8
:0E329500C59C0586E0C59C259CFA1586A3E025
:0E32A300C59C0586A3E0C59C359CFB1586A343
:0E32B100E0C59C0586A3E0C59C359CFC1586F7
:0E32BF00A3E0C59C0586A3E0C59C359CFD756B
:0E32CD0086009014054AEAF0A3EBF0A3ECF0A3
:0E32DB00A3EDF09014054AA3A3A3E020E7049E
:0432E900024933372C
:0E32ED009014054A7586019014054A1586E076
:0E32FB00D3F434000586F01586A3E0F4340009
:0E3309000586A3F01586A3E0F434000586A324
:0E331700F01586A3E0F434000586A3F0758659
:0E332500009014055EE4F0A3F0A3E4F0A3749E
:0433330080F0802284
:0E3337009014054AE0F5F0A3E042F0A3E04256
:09334500F0A3E042F0E5F0700B8A
:0B334E009000000075F000024934C53B
:0E3359009014054AE0FAA3E0FBA3E0FCA3E019
:0E336700FDC3EA9400EB9400EC9480ED94001A
:063375004004024933C8C8
:0E337B0075F0029014054AE0FAA3E0FBA3E00F
:06338900FCA3E0FD800D35
:0D338F00EA25E0FAEB33FBEC33FCED33FDF7
:0E339C00D5F0F09014054AEAF0A3EBF0A3EC94
:0E33AA00F0A3EDF09014055AE024FFFAA3E022
:0D33B80034FFFB9014055AEAF0A3EBF0027D
:0333C50049335930
:0E33C8009014054AE0FAA3E0FBA3E0FCA3E0AA
:0733D600FD70040249343CC4
:0833DD009014054AE030E017EE
:0E33E5009014054AE02402F0A3E03400F0A3A7
:0933F300E03400F0A3E03400F026
:0D33FC009014054AA3A3A3E0A2E713FD125D
:0E3409004934C6E013FC124934C6E013FB122E
:0E3417004934C6E013FA9014054AF0A3EBF016
:0E342500A3ECF0A3EDF09014055AE02401F0A2
:09343300A3E03400F0024933C8A3
:0E343C009014054AE0F0A3E0F0A3E0547FF006
:0E344A00A3E0F09014055AE0FAA3E0FBE03393
:0934580095E0FCFD75F018800DF3
:0D346100EA25E0FAEB33FBEC33FCED33FD24
:0E346E00D5F0F09014055EE04202A3E04203A8
:0E347C00A3E04204A3E042059014054AE0FEDE
:0E348A00A3E0FFA3E0F8A3E0F9EE4202EF4258
:0E34980003E84204E9420590140552EAF0A34D
:0E34A600EBF0A3ECF0A3EDF090140552E0A3C0
:0E34B400FAE0A3FBE0A3FCE0FD8A828B838C90
:0334C200938DF0F7
:0134C50022E4
:0734C6004386C0A353863FBB
:0134CD0022DC
:0534CE00AA82BA6100B2
:0234D300400AAD
:0634D500C3747A9A400462
:0434DB0075820122D3
:0334DF00758200F3
:0134E20022C7
:0D34E300AA82AB83AC93ADF0E4F584F585CF
:0E34F0008A828B838C938DF01249285CF8A39E
:0B34FE00AA82AB83AC93ADF0E860093C
:09350900758601A375860080DEC1
:063512008584828585839B
:013518002290
:00000001FF
